:020000040000fa
:080000000002040000000000f2
:020000040000fa
:04000800fc020000f6
:020000040000fa
:04000c00fc020000f2
:020000040000fa
:04001000fc020000ee
:020000040000fa
:04001400fc020000ea
:020000040000fa
:04001800fc020000e6
:020000040000fa
:04001c00fc020000e2
:020000040000fa
:04002000fc020000de
:020000040000fa
:04002400fc020000da
:020000040000fa
:04002800fc020000d6
:020000040000fa
:04002c00fc020000d2
:020000040000fa
:04003000fc020000ce
:020000040000fa
:04003400d4020000f2
:020000040000fa
:04003800fc020000c6
:020000040000fa
:04003c00fc020000c2
:020000040000fa
:04004000fc020000be
:020000040000fa
:04004400fc020000ba
:020000040000fa
:04004800fc020000b6
:020000040000fa
:04004c00fc020000b2
:020000040000fa
:04005000fc020000ae
:020000040000fa
:04005400fc020000aa
:020000040000fa
:04005800fc020000a6
:020000040000fa
:04005c00fc020000a2
:020000040000fa
:04006000fc0200009e
:020000040000fa
:04006400fc0200009a
:020000040000fa
:04006800fc02000096
:020000040000fa
:04006c00fc02000092
:020000040000fa
:04007000fc0200008e
:020000040000fa
:04007400fc0200008a
:020000040000fa
:04007800fc02000086
:020000040000fa
:04007c00fc02000082
:020000040000fa
:04008000fc0200007e
:020000040000fa
:04008400fc0200007a
:020000040000fa
:04008800fc02000076
:020000040000fa
:04008c00fc02000072
:020000040000fa
:04009000fc0200006e
:020000040000fa
:04009400fc0200006a
:020000040000fa
:04009800fc02000066
:020000040000fa
:04009c00fc02000062
:020000040000fa
:0400a000fc0200005e
:020000040000fa
:0400a400fc0200005a
:020000040000fa
:0400a800fc02000056
:020000040000fa
:0400ac00fc02000052
:020000040000fa
:0400b000fc0200004e
:020000040000fa
:0400b400fc0200004a
:020000040000fa
:0400b800fc02000046
:020000040000fa
:0400bc00fc02000042
:020000040000fa
:0400c000fc0200003e
:020000040000fa
:0400c400fc0200003a
:020000040000fa
:0400c800fc02000036
:020000040000fa
:0400cc00fc02000032
:020000040000fa
:0400d000fc0200002e
:020000040000fa
:0400d400fc0200002a
:020000040000fa
:0400d800fc02000026
:020000040000fa
:0400dc00fc02000022
:020000040000fa
:0400e000fc0200001e
:020000040000fa
:0400e400fc0200001a
:020000040000fa
:0400e800fc02000016
:020000040000fa
:0400ec00fc02000012
:020000040000fa
:0400f000fc0200000e
:020000040000fa
:0400f400fc0200000a
:020000040000fa
:0400f800fc02000006
:020000040000fa
:0400fc00fc02000002
:020000040000fa
:04010000fc020000fd
:020000040000fa
:04010400fc020000f9
:020000040000fa
:04010800fc020000f5
:020000040000fa
:04010c00fc020000f1
:020000040000fa
:04011000fc020000ed
:020000040000fa
:04011400fc020000e9
:020000040000fa
:04011800fc020000e5
:020000040000fa
:04011c00fc020000e1
:020000040000fa
:04012000fc020000dd
:020000040000fa
:04012400fc020000d9
:020000040000fa
:04012800fc020000d5
:020000040000fa
:04012c00fc020000d1
:020000040000fa
:04013000fc020000cd
:020000040000fa
:04013400fc020000c9
:020000040000fa
:04013800fc020000c5
:020000040000fa
:04013c00fc020000c1
:020000040000fa
:04020800fc020000f4
:020000040000fa
:04020c00fc020000f0
:020000040000fa
:04021000fc020000ec
:020000040000fa
:04021400fc020000e8
:020000040000fa
:04021800fc020000e4
:020000040000fa
:04021c00fc020000e0
:020000040000fa
:04022000fc020000dc
:020000040000fa
:04022400fc020000d8
:020000040000fa
:04022800fc020000d4
:020000040000fa
:04022c00fc020000d0
:020000040000fa
:04023000fc020000cc
:020000040000fa
:04023400d4020000f0
:020000040000fa
:04023800fc020000c4
:020000040000fa
:04023c00fc020000c0
:020000040000fa
:04024000fc020000bc
:020000040000fa
:04024400fc020000b8
:020000040000fa
:04024800fc020000b4
:020000040000fa
:04024c00fc020000b0
:020000040000fa
:04025000fc020000ac
:020000040000fa
:04025400fc020000a8
:020000040000fa
:04025800fc020000a4
:020000040000fa
:04025c00fc020000a0
:020000040000fa
:04026000fc0200009c
:020000040000fa
:04026400fc02000098
:020000040000fa
:04026800fc02000094
:020000040000fa
:04026c00fc02000090
:020000040000fa
:04027000fc0200008c
:020000040000fa
:04027400fc02000088
:020000040000fa
:04027800fc02000084
:020000040000fa
:04027c00fc02000080
:020000040000fa
:04028000fc0200007c
:020000040000fa
:04028400fc02000078
:020000040000fa
:04028800fc02000074
:020000040000fa
:04028c00fc02000070
:020000040000fa
:04029000fc0200006c
:020000040000fa
:04029400fc02000068
:020000040000fa
:04029800fc02000064
:020000040000fa
:04029c00fc02000060
:020000040000fa
:0402a000fc0200005c
:020000040000fa
:0402a400fc02000058
:020000040000fa
:0402a800fc02000054
:020000040000fa
:0402ac00fc02000050
:020000040000fa
:0402b000fc0200004c
:020000040000fa
:0402b400fc02000048
:020000040000fa
:0402b800fc02000044
:020000040000fa
:0402bc00fc02000040
:020000040000fa
:0402c000fc0200003c
:020000040000fa
:0402c400fc02000038
:020000040000fa
:0402c800fc02000034
:020000040000fa
:0402cc00fc02000030
:020000040000fa
:0402d000fc0200002c
:020000040000fa
:0402d400fc02000028
:020000040000fa
:0402d800fc02000024
:020000040000fa
:0402dc00fc02000020
:020000040000fa
:0402e000fc0200001c
:020000040000fa
:0402e400fc02000018
:020000040000fa
:0402e800fc02000014
:020000040000fa
:0402ec00fc02000010
:020000040000fa
:0402f000fc0200000c
:020000040000fa
:0402f400fc02000008
:020000040000fa
:0402f800fc02000004
:020000040000fa
:0402fc00fc02000000
:020000040000fa
:04030000fc020000fb
:020000040000fa
:04030400fc020000f7
:020000040000fa
:04030800fc020000f3
:020000040000fa
:04030c00fc020000ef
:020000040000fa
:04031000fc020000eb
:020000040000fa
:04031400fc020000e7
:020000040000fa
:04031800fc020000e3
:020000040000fa
:04031c00fc020000df
:020000040000fa
:04032000fc020000db
:020000040000fa
:04032400fc020000d7
:020000040000fa
:04032800fc020000d3
:020000040000fa
:04032c00fc020000cf
:020000040000fa
:04033000fc020000cb
:020000040000fa
:04033400fc020000c7
:020000040000fa
:04033800fc020000c3
:020000040000fa
:04033c00fc020000bf
:020000040000fa
:100400004fcf20000e7f24000e0188000000000066
:10041000000020000000e000020032000001200087
:100420002002880014000700bf0007000000e00061
:1004300003003a00a07821000100200002003700ec
:100440000000200001002000810f70000100320038
:1004500014000700000020000000e000020032004d
:100460000000020000000000561902000000000019
:100470000040da000000fe004440a900e003200034
:100480000000e0000300320000002000a00188000e
:100490004440a800000006008a1f78008b1f7800e7
:1004a0000000060091018800800478000000eb0045
:1004b0001a003700e284440032a0b4009905ba0063
:1004c000e284440032a0b4009906ba00e2844400f9
:1004d00032a0b4000006eb00476fde00fd07b2005b
:1004e000636ce10003003a00ebff07000000eb0043
:1004f0000a003700606ce10004003a00005deb0088
:100500008b05e900fdff3e00040037006168e10053
:10051000010032000086eb000b00070019c7ba008b
:100520001905ba000e04e00003003a000a00e000da
:10053000e0ff3a0000000600fe07b2009e018800be
:100540008a047800f5ff3700395dba008b05e900b1
:100550000c003200295dba008b05e900080032006a
:100560000c00e00003003a00e284440032a0b40032
:10057000f5ff370019ddba008b05e900faff3a00f4
:100580008904e800e184440032a0b40000000600c1
:100590009e10040000000000201004000000000075
:1005a000dc0f0400000000003600f800809fbe0051
:1005b000829fbe00849fbe00869fbe000000fa009e
:1005c000001780004600de00614060000080fb00f4
:1005d000f00a07008460a900000000000080fa0013
:1005e0004f03be004f02be004f01be004f00be00d1
:1005f0003600f900004006000040da000000fe006e
:10060000f03fb1000180b10006003500ee030900a3
:1006100000000000403fb1000180b100fbff3d0041
:100620001000b000203fb00002003500008009003b
:1006300000000000000006000040da000000060094
:10064000e20f500036003e0094478000e10f520058
:100650000a003200e20f52001c0032003002e200b9
:10066000020035003822ef0031e2a8003342ab002f
:100670000d003a003342a8000b0037000022200092
:100680000000e00001003a000040da002002e20031
:10069000020035002822ef0021e2a8002342ab002f
:1006a00001003a002342a80002804000808f5000e1
:1006b0000b003a00e10f520016003a002302ab0093
:1006c000feff320002007800000006000023200038
:1006d0000000e000e1ff3a000040da00dfff3700f1
:1006e000b1417800e10f520005003a002322ab002f
:1006f000feff3a008301fb0023118800ebff370067
:100700003322ab00feff3a008301fb00a3118800f7
:10071000e6ff37003302ab00feff3200e9ff37008f
:100720000040da00e7ff3700000005001400200059
:10073000ae033700f4ff2f00ac033700889fbe00e4
:100740008a9fbe0000827000040271000482710062
:10075000260032000004be000200be006011b80096
:100760006b092000950220000182cf000a003900a9
:100770000541b1000082cf00070039000541b100fa
:100780000982cf00040039000541b1000882cf0082
:10079000010039000541b10005425200120032004b
:1007a0000a003b0082817100610164008100d10078
:1007b0000080d3008984d3000884d3008b05e8002f
:1007c0000442e800f7ff3a0007003700080444003d
:1007d00089844c0000004800818048008b05e900b6
:1007e0000442e900f9ff3a00050007004f05be008a
:1007f0004f04be00000006006011b800cfff3700b4
:1008000081002000618055000b003d000b0020009e
:1008100061fe2f000100e1001d00340082817100a3
:10082000610164008904d1000884d3000000e8005d
:10083000faff3a00710020006100640003007000bc
:10084000020060000900320061044400e0844c00b2
:100850000988a500050032008b05e8006808e10062
:1008600002003a008904d1000884d300f20f20006e
:100870000258e10005003d00c75ddd00f907b20048
:100880008980750008007800000006000bf827003a
:100890008b0078000000050007f82700078361003f
:1008a0000638e10004003a00f70720008783610062
:1008b0008703710001003a0003f0a200889fbe0088
:1008c0008a9fbe008c9fbe00470ade000480a10004
:1008d000c71ade000580a100070028000785600018
:1008e00087856100f70f20000720e1009e0032009d
:1008f0000728e1009c003200010678000400e000b7
:10090000b4003200f7072000878060000170a0006b
:100910000500e000c0003200f70720008781610079
:100920000370a000050652000f003a000b50e100d2
:100930000b0032000308e10002003a000200e1006f
:100940007e0032000204500083845800040031000d
:100950000001fd008101fd008402fd008a05fd000b
:100960006044b800210037000520e10005003d008b
:100970000001fd008101fd008402fd008a05fd00eb
:10098000050652007a60e100050035000170a10003
:100990004722dd00848070008a8070006300370089
:1009a0006044b800ef02660007ff2f0007066600ec
:1009b0000500e00006003400f08312008714dd001b
:1009c0000511de00071bdd00060171008519de0040
:1009d0007060e100050035000904780082047800a9
:1009e000030178008001eb00700656000b50e10017
:1009f00003003a00020040008380480004003700f2
:100a000060041400e0841c00020058008380580039
:100a10000188a300060032008100d1000080d300cd
:100a20008984d3000884d3000402e800270037003b
:100a30000178a30025003a000100e0000300320025
:100a40008186cf00698656000a0037008c0020009e
:100a50000000e00004003a000900780088047800f3
:100a60000004eb00700252008086cf000d064600a5
:100a70000c06e9007060e100060035008000780097
:100a800009007800880478000004eb007006560026
:100a9000700252000c00e0000c0034008c08dd00f5
:100aa000f00316000703de00868070000c00dd00f6
:100ab000074bde00060070008c4cdd000743de00b3
:100ac000868474000c44dd000c0252006120e100b9
:100ad0002000350061016000070028008781640064
:100ae000f7ff270087836400070374000300e0001a
:100af0000600320082037300040032000000e800a8
:100b0000e08048000188a3000e003a00f70f2000a3
:100b10000720e1004a003d000170a1004722dd00ee
:100b2000810072008a8070000000be004f06be0087
:100b30004f05be004f04be00000006006000b80074
:100b4000faff37008100d1000080d3000402e800e2
:100b5000eeff37000401780089017400a10107004d
:100b60008a807000f1ff3700f70107000702780064
:100b70000001fd008101fd00f301070087027800fc
:100b8000850372000778a300040032000001fd0015
:100b90008101fd0006020700e4ff370085036200c3
:100ba0000768a300080032000b50e1000300320088
:100bb000f0ff2f00f1ff2700dcff37000001fd00f0
:100bc0008101fd00d9ff37000468a300d7ff320080
:100bd000faff3700f8ff2700888360000b003a0017
:100be0000000e00009003a00830364008283730080
:100bf000020032000200be00ccff37000b50e100c3
:100c0000ceff3a000200be00c8ff370014002000eb
:100c1000810064003eff3700f8ff270088836100f1
:100c200004003a000200e00002003a008c00780064
:100c3000beff3700150020008301640039ff370034
:100c400001f827000000200081007500b7ff370081
:100c5000889fbe008a9fbe008c9fbe001b002000a4
:100c60000202be000586680006002800060666002f
:100c70004709de00f20fb200820032000243e800b2
:100c800080003200c729de00f30fb2007d00320081
:100c90000343e8007b003200f107b2000170a000be
:100ca000f507b2000570a000c708dd004903de00ab
:100cb000868070004700dd00c72add004923de0082
:100cc000868272004722dd000305510004035000b4
:100cd00085835800030031000000400081804800f7
:100ce0000a05e9008c1f78008a9fbe0004005000ae
:100cf000858058000402420085824a0000004000be
:100d0000818048000005eb000004be006033b8009d
:100d10000406be000d48e100560031001100090034
:100d20004dccd8000c01b8000d02b8008481410000
:100d300060824a008283530003045c0084845c0068
:100d400060055d000a00e00025003a00800578009b
:100d50000d40e1004900310088007800070078006c
:100d6000110009004d88d8000c01b8000d02b80030
:100d70008481410060824a006003110083835b002c
:100d800004045c00e0845c000900e00021003a00fb
:100d90004f01be000300e0002b003200e3016000c1
:100da000070673008c81710001003200640070003e
:100db0004200de004e5edd000c007000c258de0016
:100dc00001e0a00083010700cf017800818071005d
:100dd0004f06be004f05be004f04be0000000600d7
:100de0008c8343000d044c00e0844c0060054d00f2
:100df0000000e9000a00e000d4ff32008c834300c9
:100e00000d044c00e0844c0060054d000000e9003a
:100e1000ceff37000c0343008d834b0060044c0071
:100e2000e0844c000000e9000900e000d8ff320037
:100e30000c0343008d834b0060044c00e0844c00a5
:100e40000000e900d2ff37004200de004e5edd0008
:100e50000c007000c258de0001e0a000cf01780055
:100e60000300e000daff320060001000e0801800ac
:100e7000d7ff3700f0ff2f00aaff3700f0ff2f0049
:100e8000b9ff37000404be002f0107008706780071
:100e90000004fd008104fd002b01070007836600ac
:100ea0000678a300030032000960a7000800be0016
:100eb0002c0037000d78a300020032000800be00ad
:100ec000280037000778a30026003a0001f0a100af
:100ed00009f0a1000668a30003003200f1ff27001b
:100ee000f0ff2f00baff37000d68a30003003200a7
:100ef0000800be008c807000b5ff37000768a300b3
:100f000007003a000648a30003003200f1ff270063
:100f1000f0ff2f00aeff37000d48a30003003200a2
:100f20006000b8008c807000a9ff37000748a3005c
:100f30000400320001f82700000020008c807000bf
:100f4000a3ff3700760107000004fd008104fd00c7
:100f500002057800720107000802be008a017800cd
:100f600059ff37000160a0001202200032408800c3
:100f700097ff37000100e000120032000500e0009a
:100f800010003200889fbe008a9fbe008c9fbe006a
:100f90000006eb0001f8a30003003200600010001f
:100fa000e08018000cf0a00005f8a3000300320058
:100fb00060021200e0821a000cf0a2008005eb0033
:100fc00041ff37006000b80002000500038368009d
:100fd0000700280007036300470ade000480a10021
:100fe000c71ade000580a100f70f20000720e100ee
:100ff000420032000728e10040003200889fbe0016
:101000008a9fbe008c1f7800f107b200f307b20080
:101010000400e000640032000170a0000500e00060
:10102000680032000370a00085054200eb07b100a4
:101030000204b8000302b8008484440060854a00ba
:10104000020ab800848444000a854a00030ab800f2
:1010500004054500040033000804d0008984d20050
:101060000a85d2008b05e9006158e1003d0035009a
:10107000021020000901610003082000898161003d
:10108000f70720008783640008867300c84cde00e1
:10109000c853dd00878474004855de000300e0007b
:1010a0000600320082037600040032008904e80062
:1010b00060054d000a88a3000c003a00f70f2000dd
:1010c0000758e10044003d000a70a100c75ddd0043
:1010d0000a8575008a007300090078004f067800c1
:1010e0004f05be004f04be00000006000a05d100f7
:1010f0008984d3008b05e800f0ff3700881f780053
:101100000604780090000700070278000001fd0047
:101110008101fd008c0007008702780085037200c2
:101120000778a300050032000001fd008101fd00e9
:101130009f0007004f04780000000600850372003e
:101140000748a30003003200f0ff2f00f1ff270043
:10115000f8ff37000000200001f8270088807000a9
:10116000f4ff3700880178004848dd008081710075
:101170004848de00c850dd0001007000c850de00a5
:10118000060478000b0178001600070088807000c4
:10119000d2ff37000500e0000500320017002000f4
:1011a0003a0007009dff370081037000f9ff3a0005
:1011b000860078004f0678004f05be004f04be0041
:1011c0000000050083037100f9ff320027002000b2
:1011d0002e00070094ff370001f82700868070007a
:1011e000f4ff37000100e000260032006101110029
:1011f0007810e10023003c006022b8007010e1008c
:101200000400350080027800010078008000eb00c7
:10121000700151000200e000090034007003110069
:10122000062add00822ade008603dd008782720046
:101230000200de00860bdd00070070008208de0081
:1012400084817100f4ff27000482620084817100b0
:1012500004002800848262006102600005f0a6009c
:101260000000060004827100070032000000e80060
:10127000e0804800000006000002be006000b800e8
:10128000efff37006000b80000000600889fbe0036
:101290000004eb006138e10016003a000100e000b4
:1012a00008003a00c800de004800dd008800200089
:1012b0000100e00003003a00c800de004800dd0045
:1012c000680444008184cf00e9845400060034009f
:1012d0008908dd00f08314008703de00878070003a
:1012e0000900dd0009044400610214004f04be003f
:1012f000000006000300e00008003a00c811de000c
:101300004811dd00880020000300e00003003a00df
:10131000c811de004811dd00680444008384cf005a
:10132000e9845400060034008919dd00f0831400bc
:101330008713de00878171000911dd000904440074
:10134000e1021400e9ff37002700200001f0a700a8
:1013500017002000470bde00f60fb2000400320039
:101360000643e8000a0032004702b300000006000e
:1013700001037800f607b2000603700002003a008d
:101380000703b300000006008702b3000000060058
:1013900001037800f607b200060370000200320075
:1013a0000770a000000006000760a0000000060013
:1013b0000478a300040032000578a3000300320083
:1013c0000168a30001003a000200be000160a00015
:1013d0000000060081017000270032008002eb004f
:1013e00001f8a3000300320060001000e080180044
:1013f00015002000f4072000020242002000340003
:10140000f703200087036000060420000003630048
:1014100002082000000161004700de00c909dd006c
:1014200000807100c708de000600e00008003200fe
:1014300087037100060032001000b0000180b00088
:101440000188a30002003200c108de000402e800a7
:10145000f107b200f30f20000320e10003003d007c
:101460004722dd00810072002900370001f82700c3
:101470000000eb00260037006000b8000000060006
:10148000680212007f20e100020034006000b80012
:101490001f0037006011b8007020e1000400350023
:1014a00080017800010078008000eb00700252009b
:1014b0000400e00009003400f00312000719dd0009
:1014c0008419de000703dd00868171000400de0060
:1014d000070bdd00060070008408de00f7ff270020
:1014e0008383630087037100060028000303630001
:1014f000070032000700e00003003a0061016000cd
:1015000002817300020032001000b0000180b000c0
:101510000500a6000000060001f0a0000000060083
:101520004f0ade004709de00f107b200f20fb200f9
:101530000b003200f207b1000170a000c708dd0007
:10154000c901de00838070004700dd000400a600b2
:101550000000060060001000e08018000000060097
:10156000810f700001003a00000006008182cf0068
:101570000500e00010003e008082cf00ee824200b5
:101580007028e1000400390007003e008000780068
:101590000000eb000e003700708312008600de00b2
:1015a0000500dd000a003700708352008600dd0070
:1015b0000000eb0006003700e28252008508dd00e3
:1015c000708312000603de00868070000500dd00d7
:1015d0007507b0000501ea000400a600000006003f
:1015e00060001000e080180000000600889fbe0028
:1015f0008a9fbe00841f7800170007004f00780004
:1016000011003300f0ff2f00838f6c0006003b00b9
:10161000040565000a00a7000800370009f0a600cd
:101620001000200008003700820f5400838f5c00f8
:10163000030039001000200001003e0000002000df
:1016400009f0a7000000ea004f05be004f04be00ed
:101650000000e000000006000004be0006000700d5
:101660000003be000405be000200be000200070029
:10167000844f750000000600c70ade00f107b200c3
:10168000f50fb20008003200e1cf42000200320044
:101690000170a00024000500810f700001003200dd
:1016a0000408050044000500810f700002003a00a4
:1016b000140005008502e9000000400081c04800d8
:1016c000fcff3b000170a000240005000000fa00b0
:1016d00068815700cfb89700104480001000780050
:1016e0002c0007000080fa00000006000000370010
:1016f000ea874700889fbe008a9fbe008e1f780041
:1017000080047800020778000300780082e2260057
:1017100053c72600f2b79f0083bf9f00c2962200e6
:1017200092bf9f000041eb00c2f79f0011049000a0
:1017300021059000910578000e00e00001003a00bc
:10174000728757000000e00002003a000e007800a7
:10175000200207000800e00003003500880f500059
:1017600001003600080078000b0278008a0178003a
:10177000000178008e00780009007800260007003c
:101780004f0778004f05be004f04be00af00b10008
:10179000000006000200fa00881f780000047800ac
:1017a000e2bf9f00648157006f000700980090001f
:1017b0000148a300010032000080eb004f047800d4
:1017c0000080fa0000000600889fbe000004780038
:1017d000c0049000828f540001003600820478001b
:1017e0000900e0000a00320009017800580090006a
:1017f000e30107006a004400108044005004980090
:10180000c800900089845000490498000048eb000b
:101810004f04be0000000600f2874700889fbe000c
:101820008a9fbe008c9fbe008e1f780080057800c6
:101830008106780082047800030578006106620062
:101840000c00e00002003a00828f51000e003e00c2
:10185000090178008d0078000b007800fa0107007c
:10186000890f550008003e00090578000a0078003d
:101870004f0778004f06be004f05be004f04be0064
:101880002f01b10000000600090455000807780088
:1018900008017800f00f540001003600020120001a
:1018a000010220007e805700bc010700ef0f5700a7
:1018b0000e003e004441de0000ff2f000091b90001
:1018c00002014400fe8057000b007800de01070093
:1018d0000c00e000e5ff3a00090178008d00780077
:1018e0000b007800d8010700e0ff3700020120005c
:1018f000fe8057000b007800d301070070075700e7
:10190000eaff3700000005000000050000000500a8
:101910008040eb008181fb00a28c2000838141008c
:10192000e2c279000504e00004003a00030141002e
:1019300092409000014078000000060010027800fc
:1019400094cf520006003a000301410092409000fb
:101950000408e800eacf5000eeff3600f5ff37003c
:101960008140e800fbff37009400fa00889fbe002a
:101970008a9fbe008c9fbe0000057800820478001c
:1019800091bf9f008005eb009fb897001104e00015
:10199000fd0032000000eb0080b79f000081eb00eb
:1019a00092b79f00a0b79f0000f62f000f004000e5
:1019b000b0b79f0000082000c0b79f000004eb00f4
:1019c00061407c000004e0000300320052c2b3001a
:1019d000824f500028003a000800e0000600320064
:1019e000080178000a007800970107009fb8970067
:1019f0008880400091bf9f009fbe970050c2b300f7
:101a00009d4f1000da003a008d06e8009dbf9f0050
:101a10001fb8970090407800b2c2b30082cf500048
:101a20001d00320082cf500024003c0002c2b300ef
:101a300082cf50001b00320032c2b30082cf500070
:101a40001b003200a2c2b30082cf5000240032003b
:101a5000e8010700a0b79f009fb897001100fb00a6
:101a60000003b100e90f50002a003e008100e800a9
:101a700091bf9f00f8ff37000804e800d0ff37004f
:101a80008fb097000100a00081b79f000000e80020
:101a900090bf9f00deff37008fb097000120a000ad
:101aa000f9ff37008fb097000130a000f6ff370034
:101ab0008fb097000140a000f3ff3700d2c2b300ff
:101ac00082cf5000eeff320002c3b30082cf50003d
:101ad000dcff3a008fb097000110a000eaff37004a
:101ae0000000e80090bf9f0019007800808ce9009a
:101af00070b89700a0b79f000000e00005003d000f
:101b00008fb09700e180680081b79f000000ea0075
:101b1000a0b79f000fb097000008a3000400320098
:101b200001fe2f008f804000800878001110a10076
:101b30009fb89700e0c2b300914f10000e003a002a
:101b40000000eb0090b79f000100e80090bf9f00ed
:101b500091419000a2c2b30082cf510025003a000b
:101b60008180e80091bf9f0019007800808ce90017
:101b700070b8970090b79f006e80570064ff070011
:101b8000004678001fb897001000fb00ba0107005c
:101b900091062000810f500081003200810f50001b
:101ba00034003c0031062000810f5000d600320086
:101bb000810f500019003c0051022000810f50009d
:101bc000e200320011062000810f50005800320060
:101bd0009dbf9f000000eb0080b79f00a0b79f0053
:101be0000080eb0090b79f000002eb008001eb004b
:101bf000de0037007f01070090b79f009fb8970075
:101c00001100fb000003b100e90f5000daff3e00b5
:101c10008100e80091bf9f00f8ff370041062000d7
:101c2000810f50005e00320071062000810f5000cd
:101c3000e7ff3c008c80fb000901780076805700ac
:101c4000940107000000e000ab0032001fb89700cd
:101c50008000e80091bf9f00904178007681570096
:101c600001fe2f008f8040000a00780026ff070049
:101c70003e00370001072000810f5000790032003c
:101c8000810f500016003c00e1062000810f50003b
:101c900094003200f1062000810f5000ccff3a0082
:101ca0008c80fb00890178000001eb0076805700f2
:101cb000980107000000e0008f0032001fb8970075
:101cc0000000e80090bf9f007681570001fe2f00c2
:101cd0008f8040000a0078000aff070023003700c9
:101ce00051072000810f50003d0032008107200085
:101cf000810f50004a00320031072000810f500050
:101d0000b3ff3a0000c8b300804f56007a003a0093
:101d10009fb897008100e80091bf9f0019007800ec
:101d2000808ce90070b997008001eb0082003700d9
:101d30008c80fb0009017800768057005501070070
:101d40000000e0006c0032001fb897008000e8003f
:101d500091bf9f00904178007681570001fe2f00cf
:101d60008f8040000a007800e7fe0700000444006e
:101d700008844500888f55007f003400b00420009f
:101d8000804788008085eb000b0078004f06be007e
:101d90004f05be004f04be000080fa0000000600a0
:101da0008c80fb00890178001200200076805700ab
:101db000580107000000e0004f0032001fb89700f4
:101dc0000000e80090bf9f007681570001fe2f00c1
:101dd0008f8040000a007800cafe0700e3ff37004a
:101de0008c80fb00890178000001eb0076805700b1
:101df000480107000000e0003f0032009fb8970054
:101e00008100e80091bf9f007681570001fe2f00fe
:101e10008f8040000a007800bafe0700d3ff370029
:101e20008c80fb00890178000001eb007680570070
:101e3000380107000000e0002f0032001fb89700b3
:101e40008000e80091bf9f009041780076815700a4
:101e500001fe2f008f8040000a007800aafe0700d4
:101e6000c2ff3700890178000001eb00010f20005c
:101e700076805700270107000000e0001e003200b6
:101e80001fb897000000e80090bf9f005fb0970068
:101e9000efb097007fb197008fb99700e00f500027
:101ea000e08f5800e00f5900e08f59000b003a0016
:101eb0008fb697002fb69700208c200045000700b2
:101ec0000d0278008c01780000017800218c200040
:101ed0000a00780050fe0700a4ff370083c7b30054
:101ee000daff3700088145008c80fb00890178000b
:101ef000768057007a0107009fb897008100e800bc
:101f000091bf9f009aff370000c8b300804f560072
:101f1000f9ff3a001fb897000000e80090bf9f004b
:101f200019007800808ce90060f89700a0ef9f000e
:101f3000130020007681570001fe2f008f804000a3
:101f40000a007800eafd070088ff370000c8b300e8
:101f5000804f5600e8ff3a001fb897000000e800e5
:101f600090bf9f000fb29700afb197001200200002
:101f7000818c2000d6ff37008805780082fe37006c
:101f80008001e90002814000828f500001003a0088
:101f900000000600b1697800fbff37000200e00096
:101fa00004003200800178000201e900028009008b
:101fb00081597800000006000000060060882000bb
:101fc00000000600fdff0700204488000044880050
:101fd00000000600800078000108a3000f003a000e
:101fe00001027800b4017800f2ef2f0003014100f4
:101ff0008381ea00030161000308280003016100f6
:102000000200e0000c003200010178003204e00020
:102010000500320082007800fbff370001017800e4
:102020003204e00002003a00008050000000060088
:1020300082007800e8ff370084007800e8ff37006e
:10204000100078007ef93700889fbe0000047800f9
:10205000100090000088a30012003200c804900015
:10206000828f540001003600820478000900e000ed
:102070000a0032000901780058009000c0ff0700f4
:102080006a0044001080440050049800c80090008a
:1020900089845000490498000048eb004f04be00ba
:1020a000000006000048a300fcff3a00080078008a
:1020b000e3ff0700f9ff3700889fbe000004be0061
:1020c0000000e00003003a000000eb004f04be00f7
:1020d00000000600100090000058a30009003a001c
:1020e0000000eb00200c9800600498005004980059
:1020f0000900e000f4ff3200180078004ef90700f4
:10210000f2ff3700d800900068009000808f5000e8
:10211000f3ff3600b80990000001eb008000eb00ef
:1021200008007800030001000080eb00d800900058
:102130000100e000eaff3a00e4ff3700889fbe009c
:102140000004be000000e00003003a000000eb00c5
:102150004f04be0000000600100090000058a300cd
:1021600008003200d800900068009000808f500076
:1021700016003e000000eb00200c98006004980060
:1021800050049800780a900008109000800f5200c8
:102190000600310000025200cfa2de00612bb90020
:1021a00011002000180078000f0107000000eb006c
:1021b00000149800700c98000900e000e3ff320062
:1021c000180078001cf90700e1ff3700b8099000fb
:1021d0000001eb008000eb00080078000300010024
:1021e0000080eb00d80090000100e000e1ff3a0021
:1021f000d7ff370080007800104178000000e80029
:1022000003c2b300834f5100faff32008201fb008a
:10221000e9815100e48f5100f6ff3600b0c2b300ef
:102220000002eb00804f510004003200d0c2b30026
:10223000804f510002003a00140020008100e800a5
:102240008100e9000001eb00020037006a11b900cb
:10225000000151005100fb000003b100e90f5000e4
:10226000faff36000400e00001003a000201ea0033
:102270000200780000000600f1fb2f008080400083
:10228000f98f500001003e000050a0000000060041
:10229000f9ff3700881f7800000478000000eb0089
:1022a00003082000838f5000100035001008200024
:1022b000808f50000f0034000000eb003308200036
:1022c000838f500009003a0012007800680950001e
:1022d00040ba9700d0ba970060bb9700f0bb970058
:1022e000049cbe000694be00100020004f0478003d
:1022f000000006001200780064095000f0b8970052
:1023000060b89700cc000700009cbe000294be009d
:10231000f5ff370084082000848f5000370032001a
:10232000848f500018003c0014082000848f500057
:1023300042003200848f500004003c00040820005a
:10234000848f500060003200000005002408200047
:10235000848f50004300320044082000848f5000d6
:10236000f9ff3a00130278008480e9000200e000df
:1023700074ba9700810978004f003a008002eb00a0
:102380006033b80026003700040a2000848f500014
:1023900046003200848f50000e003c0004092000eb
:1023a000848f5000e8ff3a0093007800e8805000e6
:1023b0003102be002103be00810978000498be00ee
:1023c0000690be00100020000200e0003d00320038
:1023d00000000600020c2000828f50002d00320009
:1023e000020f2000828f5000d7ff3a009300780040
:1023f0008189e90071ba9700e0ff37001302780085
:102400008480e9000200e00074ba97008109780036
:10241000060032000402fb00cfa2de00612bb900ef
:102420000498be000690be00100005000482fb0068
:102430008002eb006033b800f9ff370093007800aa
:102440004102be00810978000200e0000300320072
:102450004fabde0086037800f1ff37006033b80031
:10246000efff370093007800e88050003102be0093
:102470002103be00810978000498be000690be00ca
:10248000100020000200e000010032000000060001
:1024900000000600c1ff2f009389400093007800e0
:1024a0001102be006033b800ddff370093007800f2
:1024b0008189e90071ba9700cfa2de00612bb900d3
:1024c000d7ff370000000600930078000182e90082
:1024d0008409780071ba97000200e000a6ff370077
:1024e00044082000848f500030003200848f500058
:1024f0000a003c0014082000848f50001b003200aa
:1025000024082000848f50001f003200040820009f
:10251000848f5000250032000000050004092000cf
:10252000848f500027003200848f500009003c0047
:1025300084082000848f5000f7ff3a009300780051
:102540008189e900f1b89700010878008248780095
:1025500015003700040a2000848f50001300320059
:10256000040c2000848f5000ebff3a0093007800a9
:102570008189e900f1b89700010878006111b9007c
:102580008288be0008003700930078008189e90046
:10259000f1b89700010878006112b900612bb90009
:1025a0008498be008690be0010000500930078005d
:1025b0008189e900f1b89700010878008208780065
:1025c000f9ff3700930078008189e90071ba97001c
:1025d000040878006110b9006109b900009abe00d2
:1025e0000292be00f0ff3700a0fd2f00f1ff2f0088
:1025f000070007004f89de00820178000000060016
:10260000000006006ffe0700fdff0700fcff37001b
:1026100002002f00f3ff2f00820f5000838f58001d
:10262000040036000000ea0080478800f0ff2f0019
:10263000f1ff2f0000000600810378000efc070068
:102640000001be006000b8000478a30013003a0047
:102650006220e10015003e000d0039008301d10029
:102660000281d3008180d3008301d1000281d30095
:102670008180d3008301d1000281d3008180d30007
:102680000538b000c42add00f300b2008381720077
:1026900007f0a70003f0a0000000060083ff27005a
:1026a000020020006110b900f9ff370003ff270086
:0426b000f7ff3700f9
:020000040000fa
:1026b4004e6f000020730000756300006820000066
:1026c4005541000052540000207000006f72000059
:1026d40074200000666f000072200000746800001f
:1026e40069730000206400006576000069630000df
:1026f400650000000200000001020000020000006a
:102704002100000002000000040000000800000096
:10271400020000000102000002000000210000008d
:0c2724000200000004000000080000009b
:020000040000fa
:102730000000fa0005e1a800000000000080fa0097
:10274000000006000000fa0005e1a90000000000fa
:102750000080fa00000006000000fa000421a80032
:10276000000000000080fa00000006000000fa00ef
:102770000421a900000000000080fa00000006000b
:102780000000fa0004c1a800000000000080fa0068
:10279000000006000000fa0004c1a90000000000cb
:1027a0000080fa00000006000000fa000008800027
:1027b0000080fa00000006000200fa00000f780016
:1027c0009e00780001088800000000000080fa00e8
:1027d000000006000000fa00200880004400de002f
:1027e000634060000080fb000080fa0000000600eb
:1027f0000200fa00000f78001e0078000040780008
:10280000634060000080fb00630060004400dd0066
:1028100022088000f1fc2f0081006100010070009f
:1028200020088800000000000080fa000000060078
:102830000200fa00000f78009e007800110888005e
:10284000000000000080fa00000006000000fa000e
:10285000100880000080fa00000006000200fa0064
:10286000000f78001e00780000407800674060008c
:102870000080fb00670060004c00dd002205800046
:10288000f1ff280081006100010070002005880030
:10289000000000000080fa00000006000000fa00be
:1028a000200580004c00de00674060000080fb00d7
:1028b0000080fa00000006000000fa008460a90011
:1028c000000000000080fa00000006000000fa008e
:1028d0008460a800000000000080fa0000000600ec
:1028e0000000fa009460a800000000000080fa00d8
:1028f000000006000000fa009460a900000000003b
:102900000080fa00000006000000fa0011e1a800b3
:10291000000000000080fa00000006000000fa003d
:1029200011e1a900000000000080fa00000006008c
:102930000000fa001021a800000000000080fa004a
:10294000000006000000fa001021a90000000000ad
:102950000080fa00000006000000fa0010c1a80084
:10296000000000000080fa00000006000000fa00ed
:1029700010c1a900000000000080fa00000006005d
:102980000000fa00300880000080fa000000060015
:102990000200fa00000f78009e00780031088800dd
:1029a000000000000080fa00000006000000fa00ad
:1029b000800880004400de00634060000080fb006f
:1029c0000080fa00000006000200fa00000f780004
:1029d0001e00780000407800634060000080fb002b
:1029e000630060004400dd0082088000f1fc2f00dd
:1029f0008100610001007000800888000000000074
:102a00000080fa00000006000200fa00000f7800c3
:102a10009e00780061088800000000000080fa0035
:102a2000000006000000fa00100880000080fa0094
:102a3000000006000200fa00000f78001e00780077
:102a400000407800674060000080fb006700600085
:102a50004c00dd0032058000f1ff2800810061009c
:102a60000100700030058800000000000080fa00be
:102a7000000006000000fa00300580004c00de0077
:102a8000674060000080fb000080fa000000060044
:102a90000000fa0084e0a900000000000080fa00b5
:102aa000000006000000fa0084e0a800000000001a
:102ab0000080fa00000006000000fa0094e0a80080
:102ac000000000000080fa00000006000000fa008c
:102ad00094e0a900000000000080fa000000060059
:102ae0001200fa00889fbe008a9fbe00400798002f
:102af000510798006207980073079800040f980028
:102b00006e0090008000eb003bf707000004be0061
:102b10007e0090008000eb0037f707000005be0044
:102b20000e0890008000eb0033f707000001be00a4
:102b30000a00be0025f907000001780001007800b6
:102b4000820178000001780003007800820078009c
:102b50000001be000800be003df80700008fbe0067
:102b60004e019000de0190001e00be004af70700f3
:102b700020079800310798006011b8002e009000df
:102b8000be009000ebf607000000e00003003400f8
:102b90002e009000be009000030037002e00900031
:102ba000be00900001f0a2008001780001017800d1
:102bb00003007800820078000000be004f05be00d0
:102bc0004f04be000080fa00000006002800fa0052
:102bd000889fbe00400f9800510f9800620f980028
:102be000730f98000417980015179800261798007f
:102bf000371798000e1090009e1090002e11900034
:102c0000be119000cdf607000004be004e089000f3
:102c1000de0890006e099000fe099000c7f60700dc
:102c20000001be000800be0009f80700000f980070
:102c3000110f9800a0992900112b2400300798004b
:102c400041079800d0cc2c00712c2400200f980054
:102c5000310f980020002000500798003e003700f8
:102c60002000200060079800320037000000eb00d1
:102c700070079800270037007e0090008000400019
:102c80002039290000804000100078000002780000
:102c9000ee0190005e0190000e0890009e089000ea
:102ca0008fff0700200f9800310f98003e01900021
:102cb000ce0190002e089000be0890009bf6070001
:102cc0000000e0000e003d002e099000be099000bb
:102cd0003207980043079800ea014700130f780075
:102ce000ee009000110798007e00900080004000e8
:102cf0002039290000804000100178002207980048
:102d0000fe0090006e0047000108e8009001780086
:102d1000730798007e009000e20f5000d6ff360047
:102d2000ee0090006c0047000108e8009000780079
:102d30006107980010022000ee009000808f500084
:102d4000caff3600de0090006a0047000108e80074
:102d5000100178005207980010202000de0090003b
:102d6000808f5000beff36000e80e8001080e90022
:102d7000a80007001e80e900b500070064004700b6
:102d80001080e900c1000700d50007000000000026
:102d9000d8000700614068000004e000fcff3a0032
:102da000000000004f04be000080fa000000060092
:102db0000000fa0063fe07006cfe070075fe0700c6
:102dc000304780008afe07000000eb007afe070013
:102dd0001027200096fe0700100020009ffe07002d
:102de000b5fe0700befe070051fe07000000000010
:102df0000080fa00000006001000fa00300798007a
:102e000041079800520798006307980074079800dc
:102e10004e009000e50f5000250032004e0090005b
:102e2000e50f500011003e004e009000e20f5000f0
:102e3000210032004e009000e20f500004003e00de
:102e40004e009000e10f50001d00320013003700cb
:102e50004e009000e30f50001b0032004e00900027
:102e6000e40f50001a0032000c0037004e009000b2
:102e7000e70f5000180032004e009000e70f50009e
:102e8000170039004e009000e80f50001600320085
:102e90004e009000e90f500015003200a0352900c7
:102ea000801f780009fa07008f87e90011003700ba
:102eb000000000000f003700000000000d00370088
:102ec000000000000b003700000000000900370080
:102ed0000000000007003700000000000500370078
:102ee0000000000003003700000000000100370070
:102ef000000000003e0090003e1878002e10780080
:102f0000ae009000210098003e0090000080fa0082
:042f100000000600b7
:020000040000fa
:102f1400080800007800000000000000000800001d
:102f24000600000000000000e0080000100000009f
:102f34000200000001000000000800000100400041
:102f44000002000000010300000000000608000069
:102f54000200000000000000c20800001e00000083
:102f640002000000286e69006c290000250068003a
:102f7400076c09004c836a009074a0007ac00000ba
:102f84008068880000846c00820081008008000052
:102f94004200000002000000860884000886080041
:102fa4000100030000000000000000000000000019
:102fb40000009e001000000000000000002010002f
:102fc400dc0f000000000000000000000000000012
:102fd40000000000000000000000000000000000ed
:102fe40000000000000000000000000000000000dd
:102ff400f00800000200000000000000f2080000d9
:1030040002000000020000000100000000000000b7
:020000040000fa
:103014000200fa00000f78001e00780000407800db
:103024007f4060000080fb007f006000223a800047
:1030340001fe2f008100610001007000203a880029
:10304400000000000080fa00000006000200fa0000
:10305400000f78009e007800f01f20008080600040
:10306400f01f200000806000323a800001e02f0051
:103074008100610001007000303a88000000000007
:103084000080fa00000006000200fa00000f780039
:103094001e00780000407800634060000080fb0060
:1030a400630060004600dd00223a8000f1f32f0047
:1030b4008100610001007000203a880000000000d7
:1030c4000080fa00000006000000fa0040a7a800f3
:1030d400000000000080fa00000006000000fa0072
:1030e40040a7a900000000000080fa0000000600cc
:1030f4000000fa00103a80004500de0061406000e4
:103104000080fa00000006001400fa00200798006e
:103114003107980042079800530798006407980005
:1031240075079800060f9800170f9800dec2a800d4
:1031340005e1a9000421a90004c1a9002008800018
:103144000040a0000050a100200888000021ef00ea
:1031540010272000100888002005800000c0a0006f
:1031640000d0a10000e0a100200588008460a9002f
:103174009460a80005e1a8002e0090003e18780095
:103184002e1078002e0090000080fa000000060047
:103194000200fa00000f78001e0078000000e00032
:1031a40003003a0000c8bf0001e8b700020037007e
:1031b40010c0b30000e8b7002140800030062000b2
:1031c400808f50000b003c0001c8bf000004e000e9
:1031d4000800320021408000010078000000e8006f
:1031e400204088001e007800004178008080200084
:1031f40002f07800000000000080fa0000000600e1
:103204000000fa00de02a900e002a90000000000ac
:103214000080fa00000006000000fa00e002a800a6
:10322400de02a800000000000080fa000000060092
:103234000000fa00df02a900e102a900000000007a
:103244000080fa00000006000000fa00e102a80075
:10325400df02a800000000000080fa000000060061
:103264000000fa00e5e2a900e7e2a900e522a900ce
:10327400e722a80000602300e1162000dff4070025
:10328400e722a900000000000080fa000000060008
:103294000000fa00e7e2a800e5e2a8000000000050
:1032a4000080fa00000006000400fa0004c02600b2
:1032b400c52d20006033b800006829008109200072
:1032c4006011b80040fe0700cdff0700d8ff0700db
:1032d400e3ff0700d8a2a900daa2a8000060230037
:1032e400e1162000c5f40700daa2a90094252b00fa
:1032f400050020006033b800124d200003002000b8
:10330400110020000e0078007fff0700ffff370048
:020000040000fa
:0200000401f009
:04000000ffffff00ff
:020000040000fa
:0200000401f009
:04000400ffffff00fb
:020000040000fa
:0200000401f009
:04000800ffffff00f7
:020000040000fa
:0200000401f009
:04000c00fbff0000f6
:020000040000fa
:0200000401f009
:040010007dff000070
:020000040000fa
:0200000401f009
:040014007fff00006a
:020000040000fa
:0200000401f009
:04001800ffff0000e6
:020000040000fa
:0200000401f009
:04001c00dfff000002
:00000001FF
