:020000040000fa
:080000000002040000000000f2
:020000040000fa
:040008000c030000e5
:020000040000fa
:04000c000c030000e1
:020000040000fa
:040010000c030000dd
:020000040000fa
:040014000c030000d9
:020000040000fa
:040018000c030000d5
:020000040000fa
:04001c000c030000d1
:020000040000fa
:040020000c030000cd
:020000040000fa
:040024000c030000c9
:020000040000fa
:04002800c80200000a
:020000040000fa
:04002c000c030000c1
:020000040000fa
:040030000c030000bd
:020000040000fa
:040034000c030000b9
:020000040000fa
:040038000c030000b5
:020000040000fa
:04003c000c030000b1
:020000040000fa
:040040000c030000ad
:020000040000fa
:040044000c030000a9
:020000040000fa
:040048000c030000a5
:020000040000fa
:04004c000c030000a1
:020000040000fa
:040050000c0300009d
:020000040000fa
:040054000c03000099
:020000040000fa
:040058000c03000095
:020000040000fa
:04005c000c03000091
:020000040000fa
:040060000c0300008d
:020000040000fa
:040064000c03000089
:020000040000fa
:040068000c03000085
:020000040000fa
:04006c000c03000081
:020000040000fa
:040070000c0300007d
:020000040000fa
:040074000c03000079
:020000040000fa
:040078000c03000075
:020000040000fa
:04007c000c03000071
:020000040000fa
:040080000c0300006d
:020000040000fa
:040084000c03000069
:020000040000fa
:040088000c03000065
:020000040000fa
:04008c000c03000061
:020000040000fa
:040090000c0300005d
:020000040000fa
:040094000c03000059
:020000040000fa
:040098000c03000055
:020000040000fa
:04009c000c03000051
:020000040000fa
:0400a0000c0300004d
:020000040000fa
:0400a4000c03000049
:020000040000fa
:0400a8000c03000045
:020000040000fa
:0400ac000c03000041
:020000040000fa
:0400b0000c0300003d
:020000040000fa
:0400b4000c03000039
:020000040000fa
:0400b8000c03000035
:020000040000fa
:0400bc000c03000031
:020000040000fa
:0400c0000c0300002d
:020000040000fa
:0400c4000c03000029
:020000040000fa
:0400c8000c03000025
:020000040000fa
:0400cc000c03000021
:020000040000fa
:0400d0000c0300001d
:020000040000fa
:0400d4000c03000019
:020000040000fa
:0400d8000c03000015
:020000040000fa
:0400dc000c03000011
:020000040000fa
:0400e0000c0300000d
:020000040000fa
:0400e4000c03000009
:020000040000fa
:0400e8000c03000005
:020000040000fa
:0400ec000c03000001
:020000040000fa
:0400f0000c030000fd
:020000040000fa
:0400f4000c030000f9
:020000040000fa
:0400f8000c030000f5
:020000040000fa
:0400fc000c030000f1
:020000040000fa
:040100000c030000ec
:020000040000fa
:040104000c030000e8
:020000040000fa
:040108000c030000e4
:020000040000fa
:04010c000c030000e0
:020000040000fa
:040110000c030000dc
:020000040000fa
:040114000c030000d8
:020000040000fa
:040118000c030000d4
:020000040000fa
:04011c000c030000d0
:020000040000fa
:040120000c030000cc
:020000040000fa
:040124000c030000c8
:020000040000fa
:040128000c030000c4
:020000040000fa
:04012c000c030000c0
:020000040000fa
:040130000c030000bc
:020000040000fa
:040134000c030000b8
:020000040000fa
:040138000c030000b4
:020000040000fa
:04013c000c030000b0
:020000040000fa
:040208000c030000e3
:020000040000fa
:04020c000c030000df
:020000040000fa
:040210000c030000db
:020000040000fa
:040214000c030000d7
:020000040000fa
:040218000c030000d3
:020000040000fa
:04021c000c030000cf
:020000040000fa
:040220000c030000cb
:020000040000fa
:040224000c030000c7
:020000040000fa
:04022800c802000008
:020000040000fa
:04022c000c030000bf
:020000040000fa
:040230000c030000bb
:020000040000fa
:040234000c030000b7
:020000040000fa
:040238000c030000b3
:020000040000fa
:04023c000c030000af
:020000040000fa
:040240000c030000ab
:020000040000fa
:040244000c030000a7
:020000040000fa
:040248000c030000a3
:020000040000fa
:04024c000c0300009f
:020000040000fa
:040250000c0300009b
:020000040000fa
:040254000c03000097
:020000040000fa
:040258000c03000093
:020000040000fa
:04025c000c0300008f
:020000040000fa
:040260000c0300008b
:020000040000fa
:040264000c03000087
:020000040000fa
:040268000c03000083
:020000040000fa
:04026c000c0300007f
:020000040000fa
:040270000c0300007b
:020000040000fa
:040274000c03000077
:020000040000fa
:040278000c03000073
:020000040000fa
:04027c000c0300006f
:020000040000fa
:040280000c0300006b
:020000040000fa
:040284000c03000067
:020000040000fa
:040288000c03000063
:020000040000fa
:04028c000c0300005f
:020000040000fa
:040290000c0300005b
:020000040000fa
:040294000c03000057
:020000040000fa
:040298000c03000053
:020000040000fa
:04029c000c0300004f
:020000040000fa
:0402a0000c0300004b
:020000040000fa
:0402a4000c03000047
:020000040000fa
:0402a8000c03000043
:020000040000fa
:0402ac000c0300003f
:020000040000fa
:0402b0000c0300003b
:020000040000fa
:0402b4000c03000037
:020000040000fa
:0402b8000c03000033
:020000040000fa
:0402bc000c0300002f
:020000040000fa
:0402c0000c0300002b
:020000040000fa
:0402c4000c03000027
:020000040000fa
:0402c8000c03000023
:020000040000fa
:0402cc000c0300001f
:020000040000fa
:0402d0000c0300001b
:020000040000fa
:0402d4000c03000017
:020000040000fa
:0402d8000c03000013
:020000040000fa
:0402dc000c0300000f
:020000040000fa
:0402e0000c0300000b
:020000040000fa
:0402e4000c03000007
:020000040000fa
:0402e8000c03000003
:020000040000fa
:0402ec000c030000ff
:020000040000fa
:0402f0000c030000fb
:020000040000fa
:0402f4000c030000f7
:020000040000fa
:0402f8000c030000f3
:020000040000fa
:0402fc000c030000ef
:020000040000fa
:040300000c030000ea
:020000040000fa
:040304000c030000e6
:020000040000fa
:040308000c030000e2
:020000040000fa
:04030c000c030000de
:020000040000fa
:040310000c030000da
:020000040000fa
:040314000c030000d6
:020000040000fa
:040318000c030000d2
:020000040000fa
:04031c000c030000ce
:020000040000fa
:040320000c030000ca
:020000040000fa
:040324000c030000c6
:020000040000fa
:040328000c030000c2
:020000040000fa
:04032c000c030000be
:020000040000fa
:040330000c030000ba
:020000040000fa
:040334000c030000b6
:020000040000fa
:040338000c030000b2
:020000040000fa
:04033c000c030000ae
:020000040000fa
:100400002fc020000e7f24000e0188000000000095
:10041000000020000000e000020032000001200087
:1004200020028800140007008b0007000000e00095
:1004300003003a0080d820000100200002003700ad
:100440000000200001002000810f70000100320038
:1004500014000700000020000000e000020032004d
:100460000000020000000000520d02000000000029
:100470000040da000000fe004440a900c001200056
:100480000000e0000300320000002000a00188000e
:100490004440a800000006008a1f78008b1f7800e7
:1004a0000000060091018800800478000000eb0045
:1004b0001a003700e284440032a0b4009905ba0063
:1004c000e284440032a0b4009906ba00e2844400f9
:1004d00032a0b4000006eb00476fde00fd07b2005b
:1004e000636ce10003003a00ebff07000000eb0043
:1004f0000a003700606ce10004003a00005deb0088
:100500008b05e900fdff3e00040037006168e10053
:10051000010032000086eb000b00070019c7ba008b
:100520001905ba000e04e00003003a000a00e000da
:10053000e0ff3a0000000600fe07b2009e018800be
:100540008a047800f5ff3700395dba008b05e900b1
:100550000c003200295dba008b05e900080032006a
:100560000c00e00003003a00e284440032a0b40032
:10057000f5ff370019ddba008b05e900faff3a00f4
:100580008904e800e184440032a0b40000000600c1
:100590003600f800809fbe00829fbe00849fbe0090
:1005a000869fbe003400f80000002000a0018800f3
:1005b0000000fa00daa2a80000d0220011132000e7
:1005c00017000700daa2a9008400a90000000000bb
:1005d0000080fa003400f9004f03be004f02be0055
:1005e0004f01be004f00be003600f900004006007b
:1005f0003400f800881f780008002000a801880057
:100600004f0478000000fa00000000000080fa00ab
:100610003400f900004006000040da000000fe004f
:10062000f03fb1000180b10006003500ee03090083
:1006300000000000403fb1000180b100fbff3d0021
:100640001000b000203fb00002003500008009001b
:10065000000000000000060000000500140020005b
:10066000ae033700f4ff2f00ac033700889fbe00b5
:100670008a9fbe0000827000040271000482710033
:10068000260032000004be000200be006011b80067
:100690006b092000950220000182cf000a0039007a
:1006a0000541b1000082cf00070039000541b100cb
:1006b0000982cf00040039000541b1000882cf0053
:1006c000010039000541b10005425200120032001c
:1006d0000a003b0082817100610164008100d10049
:1006e0000080d3008984d3000884d3008b05e80000
:1006f0000442e800f7ff3a0007003700080444000e
:1007000089844c0000004800818048008b05e90086
:100710000442e900f9ff3a00050007004f05be005a
:100720004f04be00000006006011b800cfff370084
:1007300081002000618055000b003d000b0020006f
:1007400061fe2f000100e1001d0034008281710074
:10075000610164008904d1000884d3000000e8002e
:10076000faff3a007100200061006400030070008d
:10077000020060000900320061044400e0844c0083
:100780000988a500050032008b05e8006808e10033
:1007900002003a008904d1000884d300f20f20003f
:1007a0000258e10005003d00c75ddd00f907b20019
:1007b0008980750008007800000006000bf827000b
:1007c0008b0078000000050007f827000783610010
:1007d0000638e10004003a00f70720008783610033
:1007e0008703710001003a0003f0a200889fbe0059
:1007f0008a9fbe008c9fbe00470ade000480a100d5
:10080000c71ade000580a1000700280007856000e8
:1008100087856100f70f20000720e1009e0032006d
:100820000728e1009c003200010678000400e00087
:10083000b4003200f7072000878060000170a0003c
:100840000500e000c0003200f7072000878161004a
:100850000370a000050652000f003a000b50e100a3
:100860000b0032000308e10002003a000200e10040
:100870007e003200020450008384580004003100de
:100880000001fd008101fd008402fd008a05fd00dc
:100890006044b800210037000520e10005003d005c
:1008a0000001fd008101fd008402fd008a05fd00bc
:1008b000050652007a60e100050035000170a100d4
:1008c0004722dd00848070008a807000630037005a
:1008d0006044b800ef02660007ff2f0007066600bd
:1008e0000500e00006003400f08312008714dd00ec
:1008f0000511de00071bdd00060171008519de0011
:100900007060e10005003500090478008204780079
:10091000030178008001eb00700656000b50e100e7
:1009200003003a00020040008380480004003700c2
:1009300060041400e0841c0002005800838058000a
:100940000188a300060032008100d1000080d3009e
:100950008984d3000884d3000402e800270037000c
:100960000178a30025003a000100e00003003200f6
:100970008186cf00698656000a0037008c0020006f
:100980000000e00004003a000900780088047800c4
:100990000004eb00700252008086cf000d06460076
:1009a0000c06e9007060e100060035008000780068
:1009b00009007800880478000004eb0070065600f7
:1009c000700252000c00e0000c0034008c08dd00c6
:1009d000f00316000703de00868070000c00dd00c7
:1009e000074bde00060070008c4cdd000743de0084
:1009f000868474000c44dd000c0252006120e1008a
:100a00002000350061016000070028008781640034
:100a1000f7ff270087836400070374000300e000ea
:100a20000600320082037300040032000000e80078
:100a3000e08048000188a3000e003a00f70f200074
:100a40000720e1004a003d000170a1004722dd00bf
:100a5000810072008a8070000000be004f06be0058
:100a60004f05be004f04be00000006006000b80045
:100a7000faff37008100d1000080d3000402e800b3
:100a8000eeff37000401780089017400a10107001e
:100a90008a807000f1ff3700f70107000702780035
:100aa0000001fd008101fd00f301070087027800cd
:100ab000850372000778a300040032000001fd00e6
:100ac0008101fd0006020700e4ff37008503620094
:100ad0000768a300080032000b50e1000300320059
:100ae000f0ff2f00f1ff2700dcff37000001fd00c1
:100af0008101fd00d9ff37000468a300d7ff320051
:100b0000faff3700f8ff2700888360000b003a00e7
:100b10000000e00009003a00830364008283730050
:100b2000020032000200be00ccff37000b50e10093
:100b3000ceff3a000200be00c8ff370014002000bc
:100b4000810064003eff3700f8ff270088836100c2
:100b500004003a000200e00002003a008c00780035
:100b6000beff3700150020008301640039ff370005
:100b700001f827000000200081007500b7ff370052
:100b8000889fbe008a9fbe008c9fbe001b00200075
:100b90000202be0005866800060028000606660000
:100ba0004709de00f20fb200820032000243e80083
:100bb00080003200c729de00f30fb2007d00320052
:100bc0000343e8007b003200f107b2000170a0008f
:100bd000f507b2000570a000c708dd004903de007c
:100be000868070004700dd00c72add004923de0053
:100bf000868272004722dd00030551000403500085
:100c000085835800030031000000400081804800c7
:100c10000a05e9008c1f78008a9fbe00040050007e
:100c2000858058000402420085824a00000040008e
:100c3000818048000005eb000004be006033b8006e
:100c40000406be000d48e100560031001100090005
:100c50004dccd8000c01b8000d02b80084814100d1
:100c600060824a008283530003045c0084845c0039
:100c700060055d000a00e00025003a00800578006c
:100c80000d40e1004900310088007800070078003d
:100c9000110009004d88d8000c01b8000d02b80001
:100ca0008481410060824a006003110083835b00fd
:100cb00004045c00e0845c000900e00021003a00cc
:100cc0004f01be000300e0002b003200e301600092
:100cd000070673008c81710001003200640070000f
:100ce0004200de004e5edd000c007000c258de00e7
:100cf00001e0a00083010700cf017800818071002e
:100d00004f06be004f05be004f04be0000000600a7
:100d10008c8343000d044c00e0844c0060054d00c2
:100d20000000e9000a00e000d4ff32008c83430099
:100d30000d044c00e0844c0060054d000000e9000b
:100d4000ceff37000c0343008d834b0060044c0042
:100d5000e0844c000000e9000900e000d8ff320008
:100d60000c0343008d834b0060044c00e0844c0076
:100d70000000e900d2ff37004200de004e5edd00d9
:100d80000c007000c258de0001e0a000cf01780026
:100d90000300e000daff320060001000e08018007d
:100da000d7ff3700f0ff2f00aaff3700f0ff2f001a
:100db000b9ff37000404be002f0107008706780042
:100dc0000004fd008104fd002b010700078366007d
:100dd0000678a300030032000960a7000800be00e7
:100de0002c0037000d78a300020032000800be007e
:100df000280037000778a30026003a0001f0a10080
:100e000009f0a1000668a30003003200f1ff2700eb
:100e1000f0ff2f00baff37000d68a3000300320077
:100e20000800be008c807000b5ff37000768a30083
:100e300007003a000648a30003003200f1ff270034
:100e4000f0ff2f00aeff37000d48a3000300320073
:100e50006000b8008c807000a9ff37000748a3002d
:100e60000400320001f82700000020008c80700090
:100e7000a3ff3700760107000004fd008104fd0098
:100e800002057800720107000802be008a0178009e
:100e900059ff37000160a0001202200002408800c4
:100ea00097ff37000100e000120032000500e0006b
:100eb00010003200889fbe008a9fbe008c9fbe003b
:100ec0000006eb0001f8a3000300320060001000f0
:100ed000e08018000cf0a00005f8a3000300320029
:100ee00060021200e0821a000cf0a2008005eb0004
:100ef00041ff37006000b80002000500038368006e
:100f00000700280007036300470ade000480a100f1
:100f1000c71ade000580a100f70f20000720e100be
:100f2000420032000728e10040003200889fbe00e6
:100f30008a9fbe008c1f7800f107b200f307b20051
:100f40000400e000640032000170a0000500e00031
:100f5000680032000370a00085054200eb07b10075
:100f60000204b8000302b8008484440060854a008b
:100f7000020ab800848444000a854a00030ab800c3
:100f800004054500040033000804d0008984d20021
:100f90000a85d2008b05e9006158e1003d0035006b
:100fa000021020000901610003082000898161000e
:100fb000f70720008783640008867300c84cde00b2
:100fc000c853dd00878474004855de000300e0004c
:100fd0000600320082037600040032008904e80033
:100fe00060054d000a88a3000c003a00f70f2000ae
:100ff0000758e10044003d000a70a100c75ddd0014
:101000000a8575008a007300090078004f06780091
:101010004f05be004f04be00000006000a05d100c7
:101020008984d3008b05e800f0ff3700881f780023
:101030000604780090000700070278000001fd0018
:101040008101fd008c000700870278008503720093
:101050000778a300050032000001fd008101fd00ba
:101060009f0007004f04780000000600850372000f
:101070000748a30003003200f0ff2f00f1ff270014
:10108000f8ff37000000200001f82700888070007a
:10109000f4ff3700880178004848dd008081710046
:1010a0004848de00c850dd0001007000c850de0076
:1010b000060478000b017800160007008880700095
:1010c000d2ff37000500e0000500320017002000c5
:1010d0003a0007009dff370081037000f9ff3a00d6
:1010e000860078004f0678004f05be004f04be0012
:1010f0000000050083037100f9ff32002700200083
:101100002e00070094ff370001f82700868070004a
:10111000f4ff37000100e0002600320061011100f9
:101120007810e10023003c006022b8007010e1005c
:101130000400350080027800010078008000eb0098
:10114000700151000200e00009003400700311003a
:10115000062add00822ade008603dd008782720017
:101160000200de00860bdd00070070008208de0052
:1011700084817100f4ff2700048262008481710081
:1011800004002800848262006102600005f0a6006d
:101190000000060004827100070032000000e80031
:1011a000e0804800000006000002be006000b800b9
:1011b000efff37006000b80000000600889fbe0007
:1011c0000004eb006138e10016003a000100e00085
:1011d00008003a00c800de004800dd00880020005a
:1011e0000100e00003003a00c800de004800dd0016
:1011f000680444008184cf00e98454000600340070
:101200008908dd00f08314008703de00878070000a
:101210000900dd0009044400610214004f04be000f
:10122000000006000300e00008003a00c811de00dc
:101230004811dd00880020000300e00003003a00b0
:10124000c811de004811dd00680444008384cf002b
:10125000e9845400060034008919dd00f08314008d
:101260008713de00878171000911dd000904440045
:10127000e1021400e9ff37002700200001f0a70079
:1012800017002000470bde00f60fb200040032000a
:101290000643e8000a0032004702b30000000600df
:1012a00001037800f607b2000603700002003a005e
:1012b0000703b300000006008702b3000000060029
:1012c00001037800f607b200060370000200320046
:1012d0000770a000000006000760a00000000600e4
:1012e0000478a300040032000578a3000300320054
:1012f0000168a30001003a000200be000160a000e6
:101300000000060081017000270032008002eb001f
:1013100001f8a3000300320060001000e080180014
:1013200015002000f40720000202420020003400d3
:10133000f703200087036000060420000003630019
:1013400002082000000161004700de00c909dd003d
:1013500000807100c708de000600e00008003200cf
:1013600087037100060032001000b0000180b00059
:101370000188a30002003200c108de000402e80078
:10138000f107b200f30f20000320e10003003d004d
:101390004722dd00810072002900370001f8270094
:1013a0000000eb00260037006000b80000000600d7
:1013b000680212007f20e100020034006000b800e3
:1013c0001f0037006011b8007020e10004003500f4
:1013d00080017800010078008000eb00700252006c
:1013e0000400e00009003400f00312000719dd00da
:1013f0008419de000703dd00868171000400de0031
:10140000070bdd00060070008408de00f7ff2700f0
:1014100083836300870371000600280003036300d1
:10142000070032000700e00003003a00610160009d
:1014300002817300020032001000b0000180b00091
:101440000500a6000000060001f0a0000000060054
:101450004f0ade004709de00f107b200f20fb200ca
:101460000b003200f207b1000170a000c708dd00d8
:10147000c901de00838070004700dd000400a60083
:101480000000060060001000e08018000000060068
:10149000810f700001003a00000006008182cf0039
:1014a0000500e00010003e008082cf00ee82420086
:1014b0007028e1000400390007003e008000780039
:1014c0000000eb000e003700708312008600de0083
:1014d0000500dd000a003700708352008600dd0041
:1014e0000000eb0006003700e28252008508dd00b4
:1014f000708312000603de00868070000500dd00a8
:101500007507b0000501ea000400a600000006000f
:1015100060001000e080180000000600889fbe00f8
:101520008a9fbe00841f7800170007004f007800d4
:1015300011003300f0ff2f00838f6c0006003b008a
:10154000040565000a00a7000800370009f0a6009e
:101550001000200008003700820f5400838f5c00c9
:10156000030039001000200001003e0000002000b0
:1015700009f0a7000000ea004f05be004f04be00be
:101580000000e000000006000004be0006000700a6
:101590000003be000405be000200be0002000700fa
:1015a000844f750000000600c70ade00f107b20094
:1015b000f50fb20008003200e1cf42000200320015
:1015c0000170a00024000500810f700001003200ae
:1015d0000408050044000500810f700002003a0075
:1015e000140005008502e9000000400081c04800a9
:0c15f000fcff3b000170a000240005007f
:020000040000fa
:1015fc0002000000010200000200000021000000b7
:10160c0002000000040000000800000002000000be
:10161c000102000002000000210000000200000096
:08162c000400000008000000aa
:020000040000fa
:101634001200fa00889fbe008a9fbe0040079800ef
:10164400510798006207980073079800040f9800e8
:101654006e0090008000eb0032fc07000004be0026
:101664007e0090008000eb002efc07000005be0009
:101674000e0890008000eb002afc07000001be0069
:101684000a00be001cfe070000017800010078007b
:10169400820178000001780003007800820078005d
:1016a4000001be000800be0034fd0700008fbe002c
:1016b4004e019000de0190001e00be0041fc0700b8
:1016c40020079800310798006011b8002e009000a0
:1016d400be009000e2fb07000000e00003003400bd
:1016e4002e009000be009000030037002e009000f2
:1016f400be00900001f0a200800178000101780092
:1017040003007800820078000000be004f05be0090
:101714004f04be000080fa00000006002800fa0012
:10172400889fbe00400f9800510f9800620f9800e8
:10173400730f98000417980015179800261798003f
:10174400371798000e1090009e1090002e119000f4
:10175400be119000c4fb07000004be004e089000b8
:10176400de0890006e099000fe099000befb0700a1
:101774000001be000800be0000fd0700000f980035
:10178400110f9800a0992900112b2400300798000c
:1017940041079800d0cc2c00712c2400200f980015
:1017a400310f980020002000500798003e003700b9
:1017b4002000200060079800320037000000eb0092
:1017c40070079800270037007e00900080004000da
:1017d40040b128000080400010007800000278002a
:1017e400ee0190005e0190000e0890009e089000ab
:1017f4008fff0700200f9800310f98003e019000e2
:10180400ce0190002e089000be08900092fb0700c5
:101814000000e0000e003d002e099000be0990007b
:101824003207980043079800ea014700130f780035
:10183400ee009000110798007e00900080004000a8
:1018440040b1280000804000100178002207980071
:10185400fe0090006e0047000108e8009001780047
:10186400730798007e009000e20f5000d6ff360008
:10187400ee0090006c0047000108e800900078003a
:101884006107980010022000ee009000808f500045
:10189400caff3600de0090006a0047000108e80035
:1018a400100178005207980010202000de009000fc
:1018b400808f5000beff36000e80e8001080e900e3
:1018c4000f0007001e80e9001c00070064004700a9
:1018d4001080e900280007003c0007000000000019
:1018e4003f000700614068000004e000fcff3a008c
:1018f400000000004f04be000080fa000000060053
:101904000200fa00000f78001e0078000040780002
:101914007f4060000080fb007f006000223a80006e
:1019240001fe2f008100610001007000203a880050
:10193400000000000080fa00000006000200fa0027
:10194400000f78009e007800f01f20008080600067
:10195400f01f200000806000323a800001e02f0078
:101964008100610001007000303a8800000000002e
:101974000080fa00000006000200fa00000f780060
:101984001e00780000407800634060000080fb0087
:10199400630060004600dd00223a8000f1f32f006e
:1019a4008100610001007000203a880000000000fe
:1019b4000080fa00000006000000fa0040a7a8001a
:1019c400000000000080fa00000006000000fa0099
:1019d40040a7a900000000000080fa0000000600f3
:1019e4000000fa00103a80004500de00614060000b
:1019f4000080fa00000006000000fa00de02a900e0
:101a0400e002a900000000000080fa0000000600c7
:101a14000000fa00e002a800de02a80000000000b6
:101a24000080fa00000006000000fa00df02a900ae
:101a3400e102a900000000000080fa000000060096
:101a44000000fa00e102a800df02a8000000000084
:101a54000080fa00000006000000fa00e5e2a90098
:101a6400e7e2a900e522a900e722a80000a02500da
:101a740021262000e9fa0700e722a900000000005f
:101a84000080fa00000006000000fa00e7e2a80067
:101a9400e5e2a800000000000080fa000000060053
:101aa4000000fa0004402b00454c20006033b800cd
:101ab40000682900810920006011b80017ff0700a1
:101ac400cdff0700d8ff0700e3ff0700d8a2a90055
:101ad400100280000050a1000060a1000070a1006d
:101ae4001002880081e0a9009400a800200580006d
:101af4000000a0000010a0000020a0002005880025
:0c1b04008400a90000000000feff370074
:020000040000fa
:101b100000080000020000000000000000000000bb
:020000040000fa
:0200000401f009
:04000000ffffff00ff
:020000040000fa
:0200000401f009
:04000400ffffff00fb
:020000040000fa
:0200000401f009
:04000800ffffff00f7
:020000040000fa
:0200000401f009
:04000c00fbff0000f6
:020000040000fa
:0200000401f009
:040010007dff000070
:020000040000fa
:0200000401f009
:040014007fff00006a
:020000040000fa
:0200000401f009
:04001800ffff0000e6
:020000040000fa
:0200000401f009
:04001c00dfff000002
:00000001FF
