:020000040000fa
:080000000002040000000000f2
:020000040000fa
:0400080010030000e1
:020000040000fa
:04000c0010030000dd
:020000040000fa
:0400100010030000d9
:020000040000fa
:0400140010030000d5
:020000040000fa
:0400180010030000d1
:020000040000fa
:04001c0010030000cd
:020000040000fa
:0400200010030000c9
:020000040000fa
:0400240010030000c5
:020000040000fa
:04002800cc02000006
:020000040000fa
:04002c0010030000bd
:020000040000fa
:0400300010030000b9
:020000040000fa
:0400340010030000b5
:020000040000fa
:0400380010030000b1
:020000040000fa
:04003c0010030000ad
:020000040000fa
:0400400010030000a9
:020000040000fa
:0400440010030000a5
:020000040000fa
:0400480010030000a1
:020000040000fa
:04004c00100300009d
:020000040000fa
:040050001003000099
:020000040000fa
:040054001003000095
:020000040000fa
:040058001003000091
:020000040000fa
:04005c00100300008d
:020000040000fa
:040060001003000089
:020000040000fa
:040064001003000085
:020000040000fa
:040068001003000081
:020000040000fa
:04006c00100300007d
:020000040000fa
:040070001003000079
:020000040000fa
:040074001003000075
:020000040000fa
:040078001003000071
:020000040000fa
:04007c00100300006d
:020000040000fa
:040080001003000069
:020000040000fa
:040084001003000065
:020000040000fa
:040088001003000061
:020000040000fa
:04008c00100300005d
:020000040000fa
:040090001003000059
:020000040000fa
:040094001003000055
:020000040000fa
:040098001003000051
:020000040000fa
:04009c00100300004d
:020000040000fa
:0400a0001003000049
:020000040000fa
:0400a4001003000045
:020000040000fa
:0400a8001003000041
:020000040000fa
:0400ac00100300003d
:020000040000fa
:0400b0001003000039
:020000040000fa
:0400b4001003000035
:020000040000fa
:0400b8001003000031
:020000040000fa
:0400bc00100300002d
:020000040000fa
:0400c0001003000029
:020000040000fa
:0400c4001003000025
:020000040000fa
:0400c8001003000021
:020000040000fa
:0400cc00100300001d
:020000040000fa
:0400d0001003000019
:020000040000fa
:0400d4001003000015
:020000040000fa
:0400d8001003000011
:020000040000fa
:0400dc00100300000d
:020000040000fa
:0400e0001003000009
:020000040000fa
:0400e4001003000005
:020000040000fa
:0400e8001003000001
:020000040000fa
:0400ec0010030000fd
:020000040000fa
:0400f00010030000f9
:020000040000fa
:0400f40010030000f5
:020000040000fa
:0400f80010030000f1
:020000040000fa
:0400fc0010030000ed
:020000040000fa
:0401000010030000e8
:020000040000fa
:0401040010030000e4
:020000040000fa
:0401080010030000e0
:020000040000fa
:04010c0010030000dc
:020000040000fa
:0401100010030000d8
:020000040000fa
:0401140010030000d4
:020000040000fa
:0401180010030000d0
:020000040000fa
:04011c0010030000cc
:020000040000fa
:0401200010030000c8
:020000040000fa
:0401240010030000c4
:020000040000fa
:0401280010030000c0
:020000040000fa
:04012c0010030000bc
:020000040000fa
:0401300010030000b8
:020000040000fa
:0401340010030000b4
:020000040000fa
:0401380010030000b0
:020000040000fa
:04013c0010030000ac
:020000040000fa
:0402080010030000df
:020000040000fa
:04020c0010030000db
:020000040000fa
:0402100010030000d7
:020000040000fa
:0402140010030000d3
:020000040000fa
:0402180010030000cf
:020000040000fa
:04021c0010030000cb
:020000040000fa
:0402200010030000c7
:020000040000fa
:0402240010030000c3
:020000040000fa
:04022800cc02000004
:020000040000fa
:04022c0010030000bb
:020000040000fa
:0402300010030000b7
:020000040000fa
:0402340010030000b3
:020000040000fa
:0402380010030000af
:020000040000fa
:04023c0010030000ab
:020000040000fa
:0402400010030000a7
:020000040000fa
:0402440010030000a3
:020000040000fa
:04024800100300009f
:020000040000fa
:04024c00100300009b
:020000040000fa
:040250001003000097
:020000040000fa
:040254001003000093
:020000040000fa
:04025800100300008f
:020000040000fa
:04025c00100300008b
:020000040000fa
:040260001003000087
:020000040000fa
:040264001003000083
:020000040000fa
:04026800100300007f
:020000040000fa
:04026c00100300007b
:020000040000fa
:040270001003000077
:020000040000fa
:040274001003000073
:020000040000fa
:04027800100300006f
:020000040000fa
:04027c00100300006b
:020000040000fa
:040280001003000067
:020000040000fa
:040284001003000063
:020000040000fa
:04028800100300005f
:020000040000fa
:04028c00100300005b
:020000040000fa
:040290001003000057
:020000040000fa
:040294001003000053
:020000040000fa
:04029800100300004f
:020000040000fa
:04029c00100300004b
:020000040000fa
:0402a0001003000047
:020000040000fa
:0402a4001003000043
:020000040000fa
:0402a800100300003f
:020000040000fa
:0402ac00100300003b
:020000040000fa
:0402b0001003000037
:020000040000fa
:0402b4001003000033
:020000040000fa
:0402b800100300002f
:020000040000fa
:0402bc00100300002b
:020000040000fa
:0402c0001003000027
:020000040000fa
:0402c4001003000023
:020000040000fa
:0402c800100300001f
:020000040000fa
:0402cc00100300001b
:020000040000fa
:0402d0001003000017
:020000040000fa
:0402d4001003000013
:020000040000fa
:0402d800100300000f
:020000040000fa
:0402dc00100300000b
:020000040000fa
:0402e0001003000007
:020000040000fa
:0402e4001003000003
:020000040000fa
:0402e80010030000ff
:020000040000fa
:0402ec0010030000fb
:020000040000fa
:0402f00010030000f7
:020000040000fa
:0402f40010030000f3
:020000040000fa
:0402f80010030000ef
:020000040000fa
:0402fc0010030000eb
:020000040000fa
:0403000010030000e6
:020000040000fa
:0403040010030000e2
:020000040000fa
:0403080010030000de
:020000040000fa
:04030c0010030000da
:020000040000fa
:0403100010030000d6
:020000040000fa
:0403140010030000d2
:020000040000fa
:0403180010030000ce
:020000040000fa
:04031c0010030000ca
:020000040000fa
:0403200010030000c6
:020000040000fa
:0403240010030000c2
:020000040000fa
:0403280010030000be
:020000040000fa
:04032c0010030000ba
:020000040000fa
:0403300010030000b6
:020000040000fa
:0403340010030000b2
:020000040000fa
:0403380010030000ae
:020000040000fa
:04033c0010030000aa
:020000040000fa
:10040000efc320000e7f24000e01880000000000d2
:10041000000020000000e000020032000001200087
:100420002002880014000700ae0007000000e00072
:1004300003003a0020e721000100200002003700fd
:100440000000200001002000810f70000100320038
:1004500014000700000020000000e000020032004d
:100460000000020000000000f81e02000000000072
:100470000040da000000fe004440a9000005200012
:100480000000e0000300320000002000a00188000e
:100490004440a800000006008a1f78008b1f7800e7
:1004a0000000060091018800800478000000eb0045
:1004b0001a003700e284440032a0b4009905ba0063
:1004c000e284440032a0b4009906ba00e2844400f9
:1004d00032a0b4000006eb00476fde00fd07b2005b
:1004e000636ce10003003a00ebff07000000eb0043
:1004f0000a003700606ce10004003a00005deb0088
:100500008b05e900fdff3e00040037006168e10053
:10051000010032000086eb000b00070019c7ba008b
:100520001905ba000e04e00003003a000a00e000da
:10053000e0ff3a0000000600fe07b2009e018800be
:100540008a047800f5ff3700395dba008b05e900b1
:100550000c003200295dba008b05e900080032006a
:100560000c00e00003003a00e284440032a0b40032
:10057000f5ff370019ddba008b05e900faff3a00f4
:100580008904e800e184440032a0b40000000600c1
:10059000ce0b0400000000003600f800809fbe0073
:1005a000829fbe00849fbe00869fbe003400f8007c
:1005b00000002000a00188000000fa00daa2a800d4
:1005c00000d022001113200017000700daa2a900b2
:1005d0008400a900000000000080fa003400f90047
:1005e0004f03be004f02be004f01be004f00be00d1
:1005f0003600f900004006003400f800881f78003b
:1006000008002000a80188004f0478000000fa00cc
:10061000000000000080fa003400f90000400600ed
:100620000040da000000fe00f03fb1000180b100a0
:1006300006003500ee03090000000000403fb10055
:100640000180b100fbff3d001000b000203fb00072
:1006500002003500008009000000000000000600d4
:10066000889fbe0000047800e04180000000e000a8
:1006700008003200e94180000800e0000a00320072
:10068000088044000b0007000000e00006003d0069
:10069000040037000000eb00060007000000e00047
:1006a000f4ff3d008084eb00090078004f04be0099
:1006b000000006000000e00004003a00e083200093
:1006c000e04188008000eb00040037008080eb00f0
:1006d000e2c32000820f5000f9ff360001007800cd
:1006e000000006000000050014002000ae033700e3
:1006f000f4ff2f00ac033700889fbe008a9fbe0026
:100700000082700004027100048271002600320031
:100710000004be000200be006011b8006b0920009a
:10072000950220000182cf000a0039000541b10086
:100730000082cf00070039000541b1000982cf00d7
:10074000040039000541b1000882cf0001003900e2
:100750000541b10005425200120032000a003b0080
:1007600082817100610164008100d1000080d300aa
:100770008984d3000884d3008b05e8000442e80094
:10078000f7ff3a00070037000804440089844c0052
:1007900000004800818048008b05e9000442e90020
:1007a000f9ff3a00050007004f05be004f04be00e8
:1007b000000006006011b800cfff37008100200064
:1007c000618055000b003d000b00200061fe2f00f2
:1007d0000100e1001d0034008281710061016400ac
:1007e0008904d1000884d3000000e800faff3a0031
:1007f00071002000610064000300700002006000ce
:100800000900320061044400e0844c000988a5001e
:10081000050032008b05e8006808e10002003a009c
:100820008904d1000884d300f20f20000258e100af
:1008300005003d00c75ddd00f907b2008980750045
:1008400008007800000006000bf827008b007800f5
:100850000000050007f82700078361000638e10063
:1008600004003a00f70720008783610087037100c6
:1008700001003a0003f0a200889fbe008a9fbe00dc
:100880008c9fbe00470ade000480a100c71ade006c
:100890000580a100070028000785600087856100aa
:1008a000f70f20000720e1009e0032000728e1003a
:1008b0009c003200010678000400e000b400320021
:1008c000f7072000878060000170a0000500e000ad
:1008d000c0003200f7072000878161000370a0008c
:1008e000050652000f003a000b50e1000b003200e9
:1008f0000308e10002003a000200e1007e0032003d
:100900000204500083845800040031000001fd00ff
:100910008101fd008402fd008a05fd006044b800ed
:10092000210037000520e10005003d000001fd0029
:100930008101fd008402fd008a05fd0005065200cc
:100940007a60e100050035000170a1004722dd005a
:10095000848070008a807000630037006044b800b3
:10096000ef02660007ff2f00070666000500e000a3
:1009700006003400f08312008714dd000511de004c
:10098000071bdd00060171008519de007060e100c3
:10099000050035000904780082047800030178001e
:1009a0008001eb00700656000b50e10003003a0096
:1009b00002004000838048000400370060041400f7
:1009c000e0841c0002005800838058000188a300c6
:1009d000060032008100d1000080d3008984d3005a
:1009e0000884d3000402e800270037000178a30040
:1009f00025003a000100e000030032008186cf00ac
:100a0000698656000a0037008c0020000000e000d4
:100a100004003a0009007800880478000004eb0024
:100a2000700252008086cf000d0646000c06e900d9
:100a30007060e10006003500800078000900780051
:100a4000880478000004eb00700656007002520023
:100a50000c00e0000c0034008c08dd00f0031600f0
:100a60000703de00868070000c00dd00074bde000f
:100a7000060070008c4cdd000743de0086847400a5
:100a80000c44dd000c0252006120e1002000350022
:100a9000610160000700280087816400f7ff2700dc
:100aa00087836400070374000300e000060032003f
:100ab00082037300040032000000e800e080480078
:100ac0000188a3000e003a00f70f20000720e10084
:100ad0004a003d000170a1004722dd008100720044
:100ae0008a8070000000be004f06be004f05be00a9
:100af0004f04be00000006006000b800faff370097
:100b00008100d1000080d3000402e800eeff37002e
:100b10000401780089017400a10107008a80700037
:100b2000f1ff3700f7010700070278000001fd0020
:100b30008101fd00f3010700870278008503720040
:100b40000778a300040032000001fd008101fd00d0
:100b500006020700e4ff3700850362000768a30070
:100b6000080032000b50e10003003200f0ff2f00bc
:100b7000f1ff2700dcff37000001fd008101fd00cf
:100b8000d9ff37000468a300d7ff3200faff37000f
:100b9000f8ff2700888360000b003a000000e000a7
:100ba00009003a008303640082837300020032006c
:100bb0000200be00ccff37000b50e100ceff3a0030
:100bc0000200be00c8ff370014002000810064004e
:100bd0003eff3700f8ff27008883610004003a00d9
:100be0000200e00002003a008c007800beff3700ef
:100bf000150020008301640039ff370001f8270049
:100c00000000200081007500b7ff3700889fbe00fc
:100c10008a9fbe008c9fbe001b0020000202be0007
:100c20000586680006002800060666004709de0003
:100c3000f20fb200820032000243e800800032006e
:100c4000c729de00f30fb2007d0032000343e80045
:100c50007b003200f107b2000170a000f507b2007e
:100c60000570a000c708dd004903de008680700023
:100c70004700dd00c72add004923de0086827200be
:100c80004722dd000305510004035000858358000e
:100c90000300310000004000818048000a05e9009f
:100ca0008c1f78008a9fbe00040050008580580089
:100cb0000402420085824a00000040008180480012
:100cc0000005eb000004be006033b8000406be005f
:100cd0000d48e10056003100110009004dccd8004c
:100ce0000c01b8000d02b8008481410060824a0006
:100cf0008283530003045c0084845c0060055d0013
:100d00000a00e00025003a00800578000d40e1006f
:100d100049003100880078000700780011000900c0
:100d20004d88d8000c01b8000d02b8008481410044
:100d300060824a006003110083835b0004045c004e
:100d4000e0845c000900e00021003a004f01be0091
:100d50000300e0002b003200e3016000070673008f
:100d60008c81710001003200640070004200de00de
:100d70004e5edd000c007000c258de0001e0a000f5
:100d800083010700cf017800818071004f06be000b
:100d90004f05be004f04be00000006008c834300d8
:100da0000d044c00e0844c0060054d000000e9009b
:100db0000a00e000d4ff32008c8343000d044c0095
:100dc000e0844c0060054d000000e900ceff3700d4
:100dd0000c0343008d834b0060044c00e0844c0006
:100de0000000e9000900e000d8ff32000c034300d6
:100df0008d834b0060044c00e0844c000000e9004f
:100e0000d2ff37004200de004e5edd000c007000b5
:100e1000c258de0001e0a000cf0178000300e0002e
:100e2000daff320060001000e0801800d7ff3700c2
:100e3000f0ff2f00aaff3700f0ff2f00b9ff3700a7
:100e40000404be002f010700870678000004fd009f
:100e50008104fd002b010700078366000678a300cc
:100e6000030032000960a7000800be002c00370014
:100e70000d78a300020032000800be0028003700f1
:100e80000778a30026003a0001f0a10009f0a100b4
:100e90000668a30003003200f1ff2700f0ff2f00d7
:100ea000baff37000d68a300030032000800be003f
:100eb0008c807000b5ff37000768a30007003a0078
:100ec0000648a30003003200f1ff2700f0ff2f00c7
:100ed000aeff37000d48a300030032006000b800e9
:100ee0008c807000a9ff37000748a300040032007f
:100ef00001f82700000020008c807000a3ff37005d
:100f0000760107000004fd008104fd000205780061
:100f1000720107000802be008a01780059ff3700fd
:100f20000160a000120220001240880097ff3700e5
:100f30000100e000120032000500e0001000320065
:100f4000889fbe008a9fbe008c9fbe000006eb00fb
:100f500001f8a3000300320060001000e0801800d8
:100f60000cf0a00005f8a30003003200600212009c
:100f7000e0821a000cf0a2008005eb0041ff370070
:100f80006000b80002000500038368000700280025
:100f900007036300470ade000480a100c71ade00d1
:100fa0000580a100f70f20000720e1004200320079
:100fb0000728e10040003200889fbe008a9fbe00e3
:100fc0008c1f7800f107b200f307b2000400e000c4
:100fd000640032000170a0000500e00068003200eb
:100fe0000370a00085054200eb07b1000204b800c1
:100ff0000302b8008484440060854a00020ab800f5
:10100000848444000a854a00030ab80004054500a8
:10101000040033000804d0008984d2000a85d2007d
:101020008b05e9006158e1003d0035000210200009
:10103000090161000308200089816100f707200091
:101040008783640008867300c84cde00c853dd0047
:10105000878474004855de000300e000060032007b
:1010600082037600040032008904e80060054d0028
:101070000a88a3000c003a00f70f20000758e1008f
:1010800044003d000a70a100c75ddd000a857500bf
:101090008a007300090078004f0678004f05be00f3
:1010a0004f04be00000006000a05d1008984d30069
:1010b0008b05e800f0ff3700881f780006047800f1
:1010c00090000700070278000001fd008101fd008b
:1010d0008c00070087027800850372000778a30060
:1010e000050032000001fd008101fd009f000700a6
:1010f0004f04780000000600850372000748a30033
:1011000003003200f0ff2f00f1ff2700f8ff370047
:101110000000200001f8270088807000f4ff3700ed
:10112000880178004848dd00808171004848de0071
:10113000c850dd0001007000c850de0006047800d1
:101140000b0178001600070088807000d2ff37007e
:101150000500e00005003200170020003a000700fb
:101160009dff370081037000f9ff3a008600780088
:101170004f0678004f05be004f04be00000005007a
:1011800083037100f9ff3200270020002e000700c2
:1011900094ff370001f8270086807000f4ff3700c5
:1011a0000100e00026003200610111007810e1002a
:1011b00023003c006022b8007010e10004003500fc
:1011c00080027800010078008000eb00700151007f
:1011d0000200e0000900340070031100062add005f
:1011e000822ade008603dd00878272000200de00b4
:1011f000860bdd00070070008208de00848171002c
:10120000f4ff27000482620084817100040028003a
:10121000848262006102600005f0a6000000060002
:1012200004827100070032000000e800e0804800fe
:10123000000006000002be006000b800efff3700ab
:101240006000b80000000600889fbe000004eb00ac
:101250006138e10016003a000100e00008003a00a1
:10126000c800de004800dd00880020000100e0002a
:1012700003003a00c800de004800dd0068044400b6
:101280008184cf00e9845400060034008908dd0021
:10129000f08314008703de00878070000900dd0002
:1012a00009044400610214004f04be00000006005f
:1012b0000300e00008003a00c811de004811dd001c
:1012c000880020000300e00003003a00c811de009f
:1012d0004811dd00680444008384cf00e984540091
:1012e000060034008919dd00f08314008713de0046
:1012f000878171000911dd0009044400e102140036
:10130000e9ff37002700200001f0a70017002000a8
:10131000470bde00f60fb200040032000643e8007f
:101320000a0032004702b300000006000103780003
:10133000f607b2000603700002003a000703b3008c
:10134000000006008702b3000000060001037800d9
:10135000f607b20006037000020032000770a0001a
:10136000000006000760a000000006000478a3004b
:10137000040032000578a300030032000168a300d6
:1013800001003a000200be000160a000000006005b
:1013900081017000270032008002eb0001f8a300f9
:1013a0000300320060001000e080180015002000eb
:1013b000f40720000202420020003400f70320005e
:1013c0008703600006042000000363000208200079
:1013d000000161004700de00c909dd0000807100e6
:1013e000c708de000600e000080032008703710035
:1013f000060032001000b0000180b0000188a30098
:1014000002003200c108de000402e800f107b20069
:10141000f30f20000320e10003003d004722dd0020
:10142000810072002900370001f827000000eb005e
:10143000260037006000b8000000060068021200b5
:101440007f20e100020034006000b8001f00370078
:101450006011b8007020e1000400350080017800c0
:10146000010078008000eb00700252000400e000f0
:1014700009003400f00312000719dd008419de00b2
:101480000703dd00868171000400de00070bdd002c
:10149000060070008408de00f7ff270083836300e6
:1014a0008703710006002800030363000700320071
:1014b0000700e00003003a00610160000281730050
:1014c000020032001000b0000180b0000500a6004c
:1014d0000000060001f0a000000006004f0ade0038
:1014e0004709de00f107b200f20fb2000b00320034
:1014f000f207b1000170a000c708dd00c901de00dd
:10150000838070004700dd000400a6000000060094
:1015100060001000e080180000000600810f7000dd
:1015200001003a00000006008182cf000500e000c3
:1015300010003e008082cf00ee8242007028e10061
:101540000400390007003e00800078000000eb0036
:101550000e003700708312008600de000500dd00fb
:101560000a003700708352008600dd000000eb00a7
:1015700006003700e28252008508dd007083120009
:101580000603de00868070000500dd007507b000f0
:101590000501ea000400a60000000600600010003b
:1015a000e080180000000600889fbe008a9fbe00f1
:1015b000841f7800170007004f00780011003300e7
:1015c000f0ff2f00838f6c0006003b0004056500d0
:1015d0000a00a7000800370009f0a600100020004c
:1015e00008003700820f5400838f5c00030039002d
:1015f0001000200001003e000000200009f0a700bc
:101600000000ea004f05be004f04be000000e000ed
:10161000000006000004be00060007000003be0034
:101620000405be000200be0002000700844f7500e2
:1016300000000600c70ade00f107b200f50fb20095
:1016400008003200e1cf4200020032000170a00029
:1016500024000500810f700001003200040805001d
:1016600044000500810f700002003a0014000500dc
:101670008502e9000000400081c04800fcff3b00fb
:101680000170a000240005000400fa00881f780003
:101690000181b90002007800d2bf9f00e3bf9f0024
:1016a00055000700000478005fb997000000e000d3
:1016b000020032008000eb008c0007000800780078
:1016c0004f0478000080fa0000000600c641800048
:1016d0008000eb000600e0000b00320006017800fd
:1016e0008001eb008002eb0092037800808f5300b2
:1016f000120290000a003a000300e00006003200e7
:10170000940198008280e800010078000000060043
:1017100004017800f4ff3700c4418800f9ff370066
:10172000808f5300040036000100e00016003200f4
:10173000918f530014003900820178000400e0000a
:10174000f3ff3a000100e000efff3200910190004a
:101750000101780032021000e40f5200050036004b
:1017600080087800000041000488e9001300980018
:1017700080017800810f530006003a00c3418800c1
:1017800082007800e0ff3700830278008200780052
:10179000e9ff370093029800f9ff37000000e000ee
:1017a0000d0032000081e900c14180000100e0002d
:1017b0000f00320070ba97009181e8008402400067
:1017c000858f500005003a008182e80015087800f6
:1017d00003094200c24188000000060083824000e5
:1017e000850f510002003a00830842000000060005
:1017f00001087800f7ff37000200fa00889fbe005a
:101800008a9fbe000000e00001003a0010002000a6
:101810000000e800000478000800a1000800e000d3
:1018200007003a00c0002000d04188000000eb0013
:101830004f05be004f04be000080fa000000060005
:10184000e0bc20000000e00026003200e10f540060
:1018500022003600e30f4400f2ff3e00080078004b
:101860009aff07002a0020000000e000f0ff3a0085
:101870008a05440049832000b041800019005000cf
:10188000880f50000c003100bbbf9f006a805700da
:10189000380007000000e000e5ff3200b1418000a1
:1018a000808f500001003200a04188006183200039
:1018b0003fb9970082084000a141800001007800f4
:1018c0000a00e00001003200081878008b8c40000c
:1018d00099047800a9418800d5ff3700280020002e
:1018e000deff37000005eb00e1ff37000200e000fb
:1018f00004003200800178000201e9000280090042
:101900008159780000000600800078000108a300db
:101910000f003a0001027800b4017800f2ef2f00c6
:10192000030141008381ea000301610003082800ec
:10193000030161000200e0000c00320001017800a8
:101940003204e0000500320082007800fbff37001f
:10195000010178003204e00002003a0000805000eb
:101960000000060082007800e8ff3700840078005d
:10197000e8ff3700100078000000e00003003500a9
:1019800037fb0700e10f400001003a000000eb00c8
:10199000000006000000fa0068815700cfb89700e9
:1019a000740107000080fa0000000600060007002e
:1019b00058000700b7000700df0007008c00070091
:1019c0006a040700fc033700e4874700889fbe00d5
:1019d0008a9fbe008c9fbe008e1f78000006780094
:1019e000010478009106900021059000110778000d
:1019f0008ebf9f00b10590003202be002203be00e0
:101a00000400be000601be004f98de00e104600045
:101a10000900e0003c00320060021200e0821a007f
:101a200060031b00e0831b000d00e0000800350090
:101a3000708057000e0878001010a1000900e00027
:101a400003003a000fb897000028a30025003200d9
:101a50008a00e900f0815700a20020000800780009
:101a60003d0307000900e00003003a008fb897002b
:101a70000128a3001f0032000000e900d1c2b3001a
:101a80000900e00001003a00b1c2b300817578009e
:101a9000e80044001101e900000151008080450088
:101aa0000fba97008a0178000c00780049010700fe
:101ab0009c0090000188a300040032009800900070
:101ac000810f500001003d00010078004f077800b1
:101ad0004f06be004f05be004f04be004f00b100d0
:101ae000000006000038a300d9ff3a008a00780001
:101af000d8ff37000138a300e5ff32000000e900fd
:101b000001c2b300e1ff37000d00e000c8ff3d0057
:101b1000ccff37000200fa00889fbe008a9fbe00fb
:101b20000005780001047800a105900011007800fc
:101b3000b0bf9f00b1049000910090000100e00050
:101b400003003500ea805700800878001110a100da
:101b50003202be002203be00ea815700820020004c
:101b60008b00780008007800fb0207003fb997005f
:101b7000f00061000100e000030032000000e90015
:101b800001c3b300817478003fb99700e800610099
:101b90000100e000030032000000e90001c2b300d0
:101ba00081747800e80044001101e900000151004f
:101bb000808044003fba97008b0178000a007800cb
:101bc000040107009a0090000188a300040032007d
:101bd00098009000810f500001003d000100780046
:101be0004f05be004f04be000080fa000000060052
:101bf000ea874700889fbe008a9fbe008e1f78003c
:101c000080047800020778000300780082e2260052
:101c100053c72600f2b79f0083bf9f00c2962200e1
:101c200092bf9f000041eb00c2f79f00110490009b
:101c300021059000910578000e00e00001003a00b7
:101c4000728757000000e00002003a000e007800a2
:101c50002dff07000800e00003003500880f50004a
:101c600001003600080078000b0278008a01780035
:101c7000000178008e00780009007800d500070088
:101c80004f0778004f05be004f04be00af00b10003
:101c9000000006000200fa00889fbe008a9fbe0076
:101ca0000005780001047800a1059000110078007b
:101cb000b0bf9f00b1049000910090000100e000cf
:101cc00003003500ea805700800878001110a10059
:101cd0003202be002203be00ea815700a2002000ab
:101ce0008b007800080078009b020700e8004400a1
:101cf0001101e90000015100808044003fba9700c3
:101d00008b0178000a007800b20007009a0090006a
:101d10000188a3000400320098009000810f500059
:101d200001003d00010078004f05be004f04be00d9
:101d30000080fa0000000600fa874700889fbe0076
:101d40008a9fbe008c9fbe008e1f7800e0af9f0070
:101d50000105780082bf9f00a3df9f0091009000e3
:101d6000aa0690009a057800ba0490000100e000ed
:101d7000550035000b10a1007081650082b79f00ef
:101d80000fb997003202be002203be008fb1970048
:101d90000300e0004e003200e00f5200e08f5a00d6
:101da000e00f5b00e08f5b00490032000d86e90028
:101db00068816500f2af9f000200e0000100320080
:101dc0000c06e900680045001004e9000040eb0043
:101dd00080747c0001077800e10f54000d0034008e
:101de000e00f5200e08f5a00e00f5b00e08f5b00d5
:101df00039003a000e00e00037003c0001005600b8
:101e00000e0040000000e000020034000b18a300a8
:101e100031003a000fb297000400e0000e003200db
:101e20000fba97003400be002401be00e00f50003e
:101e3000e08f5800e00f5900e08f59000600320093
:101e400008804400afd8970071f89f000884e9002b
:101e500000c3b30080747c007fa997000200e000fb
:101e6000030032000804e90000c2b30080747c0063
:101e7000680045001001e900080151008880440015
:101e80000b0278008d0178006fa8970051000700c1
:101e9000efa99700930090000188a300040032008e
:101ea0009a009000810f500001003d000100780071
:101eb0004f0778004f06be004f05be004f04be001e
:101ec000af01b1000000060011002000aaff37009a
:101ed0000d067800b6ff37000804e9006f006200c5
:101ee000e90f500021003c000003b000afd997007b
:101ef0008301fb00f2fb2f0003014100f90f5100a9
:101f000010003e00800178000350a0001306b100cd
:101f1000f98f51000b003e00d1b79f0094b79f008e
:101f2000a5b79f00b6b79f00c7b79f00780307000b
:101f3000cfb397003fb39700afb297001fb297009f
:101f4000dfb0970080747c000e07e900430020009a
:101f50008703d1000683d3008582d3000482d30097
:101f60008301e900faff3a009bff37007005b000db
:101f7000deff37008201780001017800f1ff2700c1
:101f80005b023700889fbe0000047800c004900008
:101f9000828f540001003600820478000900e000be
:101fa0000a0032000901780058009000e3010700a0
:101fb0006a0044001080440050049800c80090005b
:101fc00089845000490498000048eb004f04be008b
:101fd00000000600f2874700889fbe008a9fbe006f
:101fe0008c9fbe008e1f78008005780081067800e7
:101ff0008204780003057800610662000c00e000ae
:1020000002003a00828f51000e003e000901780064
:102010008d0078000b007800daff0700890f55006b
:1020200008003e00090578000a0078004f07780094
:102030004f06be004f05be004f04be002f01b10089
:102040000000060009045500080778000801780020
:10205000f00f5400010036000201200001022000b0
:102060007e80570021fe0700ef0f57000e003e0054
:102070004441de0000ff2f000091b900020144003e
:10208000fe8057000b007800beff07000c00e00048
:10209000e5ff3a00090178008d0078000b00780018
:1020a000b8ff0700e0ff370002012000fe80570064
:1020b0000b007800b3ff070070075700eaff3700f6
:1020c0000000050000000500000005008040eb0056
:1020d0008181fb00c280200083814100e2c279003f
:1020e0000504e00004003a00030141009240900022
:1020f00001407800000006001002780094cf5200e2
:1021000006003a0003014100924090000408e800f4
:10211000eacf5000eeff3600f5ff37008140e800bf
:10212000fbff37009400fa00889fbe008a9fbe0024
:102130008c9fbe00000578008204780091bf9f004c
:102140008005eb009fb897001104e000fd0032000d
:102150000000eb0080b79f000081eb0092b79f006a
:10216000a0b79f0000f62f000f004000b0b79f00ff
:1021700000082000c0b79f000004eb0061407c0015
:102180000004e0000300320052c2b300824f50004e
:1021900028003a000800e00006003200080178003c
:1021a0000a00780077ff07009fb8970088804000fa
:1021b00091bf9f009fbe970050c2b3009d4f10007b
:1021c000da003a008d06e8009dbf9f001fb8970017
:1021d00090407800b2c2b30082cf50001d003200a0
:1021e00082cf500024003c0002c2b30082cf5000d6
:1021f0001b00320032c2b30082cf50001b003200fd
:10220000a2c2b30082cf500024003200980207001f
:10221000a0b79f009fb897001100fb000003b1001a
:10222000e90f50002a003e008100e80091bf9f00a6
:10223000f8ff37000804e800d0ff37008fb09700a0
:102240000100a00081b79f000000e80090bf9f0040
:10225000deff37008fb097000120a000f9ff3700a4
:102260008fb097000130a000f6ff37008fb09700c5
:102270000140a000f3ff3700d2c2b30082cf50006c
:10228000eeff320002c3b30082cf5000dcff3a0001
:102290008fb097000110a000eaff37000000e800af
:1022a00090bf9f0019007800808ce90070b89700fb
:1022b000a0b79f000000e00005003d008fb0970030
:1022c000e180680081b79f000000ea00a0b79f008e
:1022d0000fb097000008a3000400320001fe2f0099
:1022e0008f804000800878001110a1009fb89700ef
:1022f000e0c2b300914f10000e003a000000eb0066
:1023000090b79f000100e80090bf9f0091419000ae
:10231000a2c2b30082cf510025003a008180e800bc
:1023200091bf9f0019007800808ce90070b8970079
:1023300090b79f006e80570064ff0700004678004a
:102340001fb897001000fb006a02070091062000ea
:10235000810f500081003200810f500034003c009a
:1023600031062000810f5000d6003200810f50004e
:1023700019003c0051022000810f5000e2003200a1
:1023800011062000810f5000580032009dbf9f00b1
:102390000000eb0080b79f00a0b79f000080eb001b
:1023a00090b79f000002eb008001eb00de003700d9
:1023b0002f02070090b79f009fb897001100fb0005
:1023c0000003b100e90f5000daff3e008100e80091
:1023d00091bf9f00f8ff370041062000810f500099
:1023e0005e00320071062000810f5000e7ff3c00c4
:1023f0008c80fb0009017800768057004b020700b3
:102400000000e000ab0032001fb897008000e80039
:1024100091bf9f00904178007681570001fe2f0008
:102420008f8040000a00780026ff07003e0037003a
:1024300001072000810f500079003200810f500009
:1024400016003c00e1062000810f5000940032008d
:10245000f1062000810f5000ccff3a008c80fb0079
:10246000890178000001eb007680570052010700d7
:102470000000e0008f0032001fb897000000e80065
:1024800090bf9f007681570001fe2f008f80400093
:102490000a0078009ffd0700230037005107200045
:1024a000810f50003d00320081072000810f500055
:1024b0004a00320031072000810f5000b3ff3a007c
:1024c00000c8b300804f56007a003a009fb89700ca
:1024d0008100e80091bf9f0019007800808ce9001e
:1024e00070b997008001eb00820037008c80fb0000
:1024f00009017800768057000c0207000000e00018
:102500006c0032001fb897008000e80091bf9f0068
:10251000904178007681570001fe2f008f804000a7
:102520000a007800e7fe0700000444000884450024
:10253000888f55007f003400b0042000d04188000f
:102540008085eb000b0078004f06be004f05be00f3
:102550004f04be000080fa00000006008c80fb00e3
:1025600089017800120020007680570012010700d0
:102570000000e0004f0032001fb897000000e800a4
:1025800090bf9f007681570001fe2f008f80400092
:102590000a0078000cfd0700e3ff37008c80fb0089
:1025a000890178000001eb007680570002010700e6
:1025b0000000e0003f0032009fb897008100e80073
:1025c00091bf9f007681570001fe2f008f80400051
:1025d0000a007800affd0700d3ff37008c80fb00b6
:1025e000890178000001eb0076805700f2000700b7
:1025f0000000e0002f0032001fb897008000e800c4
:1026000091bf9f00904178007681570001fe2f0016
:102610008f8040000a007800c7fd0700c2ff370026
:10262000890178000001eb00010f2000768057003f
:10263000e10007000000e0001e0032001fb8970014
:102640000000e80090bf9f005fb09700efb09700d8
:102650007fb197008fb99700e00f5000e08f5800ce
:10266000e00f5900e08f59000b003a008fb6970039
:102670002fb6970040802000a3fc07000d027800d1
:102680008c01780000017800418020000a00780069
:1026900050fe0700a4ff370083c7b300daff3700fe
:1026a000088145008c80fb00890178007680570006
:1026b0002e0107009fb897008100e80091bf9f009e
:1026c0009aff370000c8b300804f5600f9ff3a0068
:1026d0001fb897000000e80090bf9f001900780025
:1026e000808ce90060f89700a0ef9f0013002000a5
:1026f0007681570001fe2f008f8040000a0078008d
:102700003bfd070088ff370000c8b300804f56002c
:10271000e8ff3a001fb897000000e80090bf9f0054
:102720000fb29700afb1970012002000a1802000e7
:10273000d6ff37008805780082fe37008001e90067
:1027400002814000828f500001003a000000060024
:10275000b1697800fbff37000e00fa00889fbe00c9
:102760008a9fbe008c9fbe00240798003507980002
:102770004607980057079800010f78000206be0030
:10278000b0009000610798001301780012079800cc
:1027900090059000680040001000e90000047800f7
:1027a0000b00e00001003d001b0020008040eb001a
:1027b000ee019000817178000b057800190020006f
:1027c0000800e0001c003c000900e0004600320068
:1027d000080078004f06be004f05be004f04be0043
:1027e0000080fa00000006006162b900612bb900a8
:1027f0002e009000be0090004e019000de0190007f
:102800006b030700260037006162b900612bb90035
:102810002e009000be0090004e019000de0190005e
:102820005c030700200798003107980042079800d2
:1028300053079800e2ff37002e009000be00900082
:102840004e019000de019000e00f5000e08f580034
:10285000e00f5900e08f590009003a000a00e0003b
:1028600007003c001e8015000a0040000000e00048
:10287000d5ff34009e0090000118a300d2ff320063
:102880000804e900ea0f5600d7ff3a002e00900036
:10289000be0090004e019000de0190008e02070005
:1028a0008004780001c3b300014040006e01900035
:1028b00000717c000a05e900ea0f5600d2ff3a00d9
:1028c0002e009000be0090004e019000de019000ae
:1028d0002a02070020079800310798004207980055
:1028e00053079800b6ff37001d40a100b8ff37001e
:1028f0001000fa0001027800820078000081eb00ed
:1029000082bf9f002210200092bf9f000000e000c5
:1029100001003a000f80e900a0bf9f00b4bf9f00f4
:102920008002eb000400e000010032008402e900b4
:10293000c5bf9f000400e00005003d00b00420007a
:10294000d04188000080eb000080fa000000060003
:102950000048eb00e0bf9f00d0bf9f00030178005c
:102960007080570001000700f7ff37000200fa00ef
:10297000881f780000047800e2bf9f006481570040
:10298000e8fd0700980090000148a3000100320014
:102990000080eb004f0478000080fa000000060081
:1029a000881f780000047800b5010700080078004f
:1029b0004f0478000000060084082000848f500037
:1029c00037003200848f500018003c0014082000ab
:1029d000848f500042003200848f500004003c007d
:1029e00004082000848f50005a00320000000500c7
:1029f00024082000848f5000430032004408200047
:102a0000848f5000f9ff3a00130278008480e900b7
:102a10000200e00074ba97008109780049003a008a
:102a20008002eb006033b80026003700040a200063
:102a3000848f500040003200848f50000e003c0014
:102a400004092000848f5000e8ff3a0093007800ca
:102a5000e88050003102be002103be0081097800e9
:102a60000498be000690be00100020000200e000a6
:102a70003700320000000600020c2000828f500058
:102a800003003200020f2000828f5000d7ff3a006f
:102a9000930078008189e90071ba9700e0ff370060
:102aa000130278008480e9000200e00074ba970005
:102ab00081097800060032000402fb00cfa2de008c
:102ac000612bb9000498be000690be0010000500fe
:102ad0000482fb008002eb006033b800f9ff37008e
:102ae000930078004102be00810978000200e000f6
:102af000030032004fabde0086037800f1ff3700a1
:102b00006033b800efff370093007800e880500092
:102b10003102be002103be00810978000498be0086
:102b20000690be00100020000200e000010032000c
:102b30000000060000000600930078008189e9008b
:102b400071ba9700cfa2de00612bb900ddff37001c
:102b500000000600930078000182e90084097800f3
:102b600071ba97000200e000acff37004408200073
:102b7000848f50000b003200848f50000f003c0007
:102b800014082000848f50001a003200240820000e
:102b9000848f50001e00320004082000848f5000f3
:102ba0000e003a00930078008189e900f1b897009f
:102bb000010878008208780014003700040920001a
:102bc000848f500021003200848f500004003c00ac
:102bd00084082000848f5000160032000000050099
:102be000040a2000848f5000eeff3200040c200005
:102bf000eaff3700930078008189e900f1b8970077
:102c0000010878006111b9008288be00100005003b
:102c1000930078008189e900f1b8970001087800f5
:102c20006112b900612bb9008498be008690be0085
:102c3000f6ff3700930078008189e900f1b897002a
:102c40000108780082487800f0ff37009300780090
:102c50008189e90071ba9700040878006110b90011
:102c60006109b900009abe000292be00e7ff37007a
:102c700080007800104178000000e80003c2b30033
:102c8000834f5100faff32008201fb00e9815100bd
:102c9000e48f5100f6ff3600b0c2b3000002eb0033
:102ca000804f510004003200d0c2b300804f510069
:102cb00002003a00140020008100e8008100e900d1
:102cc0000001eb00020037006a11b9000001510059
:102cd0005100fb000003b100e90f5000faff36007d
:102ce0000400e00001003a000201ea00020078005e
:102cf00000000600f1fb2f0080804000f98f50009b
:102d000001003e000050a00000000600f9ff37005f
:102d1000f1f92f0080804000f98f500001003e0043
:102d2000f005b20000000600f9ff3700881f7800a8
:102d3000000478000000eb0003082000838f50009f
:102d40001000350010082000808f50000f00340064
:102d50000000eb0033082000838f500009003a0088
:102d6000120078006809500040ba9700d0ba970066
:102d700060bb9700f0bb9700049cbe000694be00a9
:102d8000100020004f0478000000060012007800b8
:102d900064095000f0b8970060b89700d8000700a9
:102da000009cbe000294be00f5ff3700840820009e
:102db000848f500037003200848f500018003c0090
:102dc00014082000848f500042003200848f50008d
:102dd00004003c0004082000848f50006000320092
:102de0000000050024082000848f500043003200ba
:102df00044082000848f5000f9ff3a001302780045
:102e00008480e9000200e00074ba9700810978002c
:102e10004f003a008002eb006033b8002600370014
:102e2000040a2000848f500046003200848f500036
:102e30000e003c0004092000848f5000e8ff3a0097
:102e400093007800e88050003102be002103be00ec
:102e5000810978000498be000690be001000200092
:102e60000200e0003d00320000000600020c2000dd
:102e7000828f50002d003200020f2000828f500000
:102e8000d7ff3a00930078008189e90071ba970072
:102e9000e0ff3700130278008480e9000200e000c0
:102ea00074ba970081097800060032000402fb0022
:102eb000cfa2de00612bb9000498be000690be00d0
:102ec000100005000482fb008002eb006033b800b4
:102ed000f9ff3700930078004102be0081097800b5
:102ee0000200e000030032004fabde0086037800f2
:102ef000f1ff37006033b800efff37009300780030
:102f0000e88050003102be002103be008109780034
:102f10000498be000690be00100020000200e000f1
:102f2000010032000000060000000600c1ff2f0073
:102f300093894000930078001102be006033b8000e
:102f4000ddff3700930078008189e90071ba9700ae
:102f5000cfa2de00612bb900d7ff370000000600ca
:102f6000930078000182e9008409780071ba970023
:102f70000200e000a6ff370044082000848f5000c4
:102f800030003200848f50000a003c0014082000fa
:102f9000848f50001b00320024082000848f5000d2
:102fa0001f00320004082000848f500025003200ea
:102fb0000000050004092000848f50002700320023
:102fc000848f500009003c0084082000848f50004a
:102fd000f7ff3a00930078008189e900f1b8970083
:102fe000010878008248780015003700040a2000a4
:102ff000848f500013003200040c2000848f500096
:10300000ebff3a00930078008189e900f1b897005e
:10301000010878006111b9008288be0008003700fd
:10302000930078008189e900f1b8970001087800e1
:103030006112b900612bb9008498be008690be0071
:1030400010000500930078008189e900f1b897002d
:103050000108780082087800f9ff370093007800b3
:103060008189e90071ba9700040878006110b900fd
:103070006109b900009abe000292be00f0ff37005d
:103080000101780080017800008268000408a30034
:103090000c0032008100e900000178000200780095
:1030a000d1417800035978000304e000fbff3a00a7
:1030b00000000600b2407800815978000104e00069
:1030c000fbff3200030078000208a300f9ff3a007a
:1030d0008200780032027800f3ef2f0084814100f3
:1030e0008482ea00858161000508280085816100ed
:1030f0000300e000e7ff3a0004187800f4ff37000f
:10310000810378004bf907000001be006000b800a1
:103110000478a30013003a006220e10015003e008d
:103120000d0039008301d1000281d3008180d300da
:103130008301d1000281d3008180d3008301d100bb
:103140000281d3008180d3000538b000c42add009d
:10315000f300b2008381720007f0a70003f0a00023
:103160000000060083ff2700020020006110b90064
:10317000f9ff370003ff2700f7ff37001200fa00be
:10318000f4ff2f000400e100e08f5800e00f590029
:10319000e08f590007003e00a40020001100090044
:1031a0000480d8008000eb006011b8000080fa00b5
:1031b000000006008e1f7800d4cc2c00c5cc2c005b
:1031c000c6cc2c00c7cc2c00250007004e00900078
:1031d000de0090006e019000fe019000340020009f
:1031e0008301d1000281d3008180d3000080d3000d
:1031f0000402e900faff3a008f87e900ebff37008d
:103200000504b8001e1f4400050db8001e8f4c00b9
:103210000c86d2001e1f45000514b8001e8f4d00fd
:103220008d86d2000c86d3001e1f4c00051db800f1
:103230001e8f4c000c86d2008d86d3001e1f4d00c1
:103240009e854d008d86d2000c86d300609f4d0078
:10325000608f4e008006eb004fb79700000006001d
:10326000889fbe008a9fbe008c9fbe008e1f780084
:103270006066b8006fb797000404b800081f7800b4
:10328000040db8000a9f44000414b800089f4d00c4
:10329000041db8000a9f4c00609f4d00608f4e00d7
:1032a0006fb7970062074700d5ff07006407470024
:1032b00086027800d2ff0700660747008702780081
:1032c000cfff07004f0778004f06be004f05be0036
:1032d0004f04be00000006001200fa00889fbe00e6
:1032e0008a9fbe000205be000004be00f0ff2f0052
:1032f0000040e100e08f5c00e00f5d00e08f5d00ca
:1033000009003e00a2002000110009000284d8003c
:103310006108b8006011b8004f05be004f04be0040
:103320000080fa00000006000800be000a01be008e
:1033300092ff07008e1f7800a400200005002000e7
:103340006033b800c6ff07003e005400be805c003a
:103350003e015d009e815d006e00b1008f87e90037
:10336000edff37004f02b000889fbe008a9fbe006d
:103370008c9fbe008e1f7800d4b79f00e5b79f00da
:10338000f6b79f0087bf9f0004042000c4b79f00ca
:103390000006eb006044b8006055b80088b79f0095
:1033a00099b79f00aab79f00bbb79f000c074600c4
:1033b0000fb497009fb497002fb59700bfb5970043
:1033c0004f5ade008e0672000802440089824c00cb
:1033d0000a034d008b834d004f1cde006055b80082
:1033e0008004eb0008027200898272000a037300f5
:1033f0008b837300c4af9f00d5af9f00e6af9f00e3
:10340000f7af9f0000044000818448000205490096
:103410008385490088af9f0099af9f00aaaf9f00a6
:10342000bbaf9f000800be000a01be000c00e00018
:103430002d003d00450007000440e10005c8e10003
:1034400006d0e10007d8e1003e0036000d06e80096
:103450000c00e0000b0035001000200001002000ef
:103460006011b8000fac97009fac97002fad97008c
:10347000bfad9700000074008180740002017500e8
:1034800083817500cfb497008904e900c9b79f0014
:103490000900e000c5ff3a000c00e00005003d0017
:1034a0000fb297009fb297002fb39700bfb397005a
:1034b00026000700cfa497000900e00004003a00ae
:1034c0000fb097009fb097002fb19700bfb1970042
:1034d0004f0778004f06be004f05be004f04be00e8
:1034e0004f02b10000000600250007005fb49700fe
:1034f000efb497007fb597008fbd97000802520088
:1035000089825a000a035b008b835b0084b79f00ab
:1035100095b79f00a6b79f00b7b79f001c0020007b
:10352000170007000820e10009a8e1000ab0e10047
:103530000bb8e100010039000006eb000c865600d4
:10354000c3ff37000d067800c1ff37003fb4970076
:10355000cfb497005fb59700efb59700080242001f
:1035600089824a000a034b008b834b00e4af9f0023
:10357000f5af9f0086b79f0097b79f000000060039
:103580002faa9700bfaa97004fab9700dfab970019
:1035900000000600881f780018002000881f7800af
:1035a00070ff07008f87e9004f04780000000600d5
:1035b000801feb006bff07008f87e900000006000b
:1035c000881f7800e00f5000e08f5800e00f59008e
:1035d000e08f59000c003d0011000700180020008a
:1035e0001400070002003d00170007000004eb0074
:1035f000e8ff07000800e0000100320008000700b3
:103600004f047800000006000004eb0009000700ea
:10361000f7ff3d000c00070018002000f4ff370002
:1036200060001000e080180060011900e0811900be
:1036300000000600e00f5200e08f5a00e00f5b0030
:10364000e08f5b000000060060021200e0821a00ba
:1036500060031b00e0831b0000000600889fbe0083
:103660008a9fbe00e00f5200e08f5a00e00f5b001f
:10367000e08f5b0004003d0060021200e0821a004f
:1036800060031b00e0831b000004eb00e00f500010
:10369000e08f5800e00f5900e08f590002003d0014
:1036a0000800070018002000c1ff07000800e00024
:1036b00001003200030007004f05be004f04be00aa
:1036c0000000060060001000e08018006001190092
:0836d000e08119000000060072
:020000040000fa
:1036d80025750000006900006e740000206100007c
:1036e800646400005f6e0000756d00006265000094
:1036f80072730000286900006e74000020610000e9
:103708002c200000696e000074200000622900006f
:10371800207b0000207200006574000075720000b4
:103728006e200000612000002b200000623b00009a
:10373800207d0000000000000200000001020000df
:103748000200000021000000020000000400000048
:103758000800000002000000010200000200000052
:103768002100000002000000040000000800000022
:020000040000fa
:103778001200fa00889fbe008a9fbe00400798008a
:10378800510798006207980073079800040f980083
:103798006e0090008000eb0004f407000004be00f7
:1037a8007e0090008000eb0000f407000005be00da
:1037b8000e0890008000eb00fcf307000001be003b
:1037c8000a00be00eef507000001be000800be00ba
:1037d8000cf50700008fbe004e019000de0190003e
:1037e8001e00be0019f40700200798003107980052
:1037f80018c0b3006011b8002e009000be00900001
:10380800b9f307000000e00001003c000044eb00b1
:103818000804e000030032002e009000be00900073
:10382800030037002e009000be00900001f0a200b7
:103838004f05be004f04be000080fa0000000600dd
:103848002800fa00889fbe00400f9800510f98008a
:10385800620f9800730f98000417980015179800c6
:1038680026179800371798000e1090009e109000a9
:103878002e119000be1190009df307000004be00b9
:103888004e089000de0890006e099000fe09900036
:1038980097f307000001be000800be00d9f4070036
:1038a800000f9800110f9800a0992900112b2400ef
:1038b8003007980041079800d0cc2c00712c2400c8
:1038c800200f9800310f980071dd8400510798008f
:1038d8003c00370092dd8400620798003200370010
:1038e8000000eb0070079800290037007e00900068
:1038f8008000400060bb2900008040001000780074
:1039080000027800ee0190005e0190000e08900021
:103918009e08900096ff0700200f9800310f98002e
:1039280018c0b3003e019000ce0190002e08900010
:10393800be0890006af307000000e00001003500af
:103948000044eb000804e0000e0032002e0990004d
:10395800be0990003207980043079800de019000e6
:10396800030f7800ee009000110798007e00900089
:103978008000400060bb29000080400010017800f2
:10398800220798007e0090000000e8007007980069
:103998007e009000e20f5000d4ff36006e009000c9
:1039a8000000e80060079800a0dd8400ee009000a9
:1039b800808f5000caff36005e0090000000e800cb
:1039c8005007980080dd8400de009000808f500052
:1039d800c0ff36001e0090000080e900820007004a
:1039e8001e80e9008e0007002e0090000080e9008c
:1039f80098000700aa00070000000000ac000700bc
:103a08000004a2000004e000fcff3a004f04be00de
:103a18000080fa00000006000000fa00d800070045
:103a2800df000700e40007000080fa00000006003d
:103a38001400fa00000f9800110f9800f2004700d8
:103a4800110f780020822000adf7070010079800ba
:103a5800b0822000aaf70700200798002000200065
:103a6800300798008e80e800660047001101780052
:103a780090004100640047009080400068004700c3
:103a88000108e8009001780043079800ce009000f4
:103a980010002000faf60700500798002182200045
:103aa8005e009000bcfb0700ea0047000e80e800bb
:103ab80011017800900041001e007800801f7800f6
:103ac800c0b62900801f780001007800aff7070012
:103ad800e48757008e80e80066004700910178006f
:103ae80010804100ea00470011004000b182200028
:103af800a9fb0700ce009000610798005e019000c6
:103b0800720798000e0890006e019000fe01900068
:103b18000288be000e0890000080fa00000006002f
:103b28000400fa00008fbe001e00900019f707007d
:103b3800000000000080fa00000006000600fa00fd
:103b480010079800210798001e0090006cf70700e6
:103b58000000e80026f70700000f78009e0090009c
:103b68001e0078008cfb07002e0090001e087800cd
:103b78001e00780007f70700000000000080fa0028
:103b8800000006000600fa00200798000000eb007d
:103b980010079800004080008e80e800e7ff0700cb
:103ba8001e0190007100200050002000020001005a
:103bb800000f780000000000f01680000040780038
:103bc800614060000004e00002003a0000000000cc
:103bd80001003700000000000000000000000000a5
:103be8000080fa00000006000200fa00000f7800ca
:103bf8001e007800004078007f4060000080fb00d5
:103c08007f006000223a800001fe2f0081006100e1
:103c180001007000203a88000080fa0000000600c9
:103c28000200fa00000f7800f01f20009e006000dc
:103c3800f01f200000806000323a800001e02f0071
:103c48008100610001007000303a88000080fa00ad
:103c5800000006000200fa00000f78001e0078003d
:103c680000407800634060000080fb006300600053
:103c78004600dd00223a8000f1f32f008100610048
:103c880001007000203a88000080fa000000060059
:103c98000000fa0040a7a8000080fa000000060013
:103ca8000000fa0040a7a9000080fa000000060002
:103cb8000000fa00113a8000000220000080600035
:103cc80000f0a7000000ea000000ea004f00de0054
:0c3cd800004078000080fa0000000600a8
:020000040000fa
:103ce400220800000e0000000200000042495400b7
:103cf4005f5049004e5f00005f494f000000000024
:103d04000008000002000000020000006f9b000099
:103d14000208000002000000000000003808000053
:103d2400020000000000000030080000080000004d
:103d340000000000040800001e0000000200000053
:103d4400286e69006c29000025006800076c0900d2
:103d54004c836a009074a0007ac0000080688800d8
:103d640000846c00820081003a0800000200000018
:103d7400000000003c0800000200000000000000f9
:043d8400000000003b
:020000040000fa
:103d88000000fa00700520007eff0700de02a9008f
:103d9800e002a900000000000080fa000000060010
:103da8000000fa00df02a900e102a90000000000fb
:103db8000080fa00000006000000fa00e5e2a90011
:103dc800e7e2a900e522a900e722a80000a0250053
:103dd8002126200012f20700e722a90000000000b7
:103de8000080fa00000006000000fa0004402b00e2
:103df800454c20006033b800006829008109200084
:103e08006011b8008efe070003ff0700d8a2a900c2
:103e1800100280000050a1000060a1000070a10005
:103e28001002880081e0a9009400a8002005800005
:103e38000000a0000010a0000020a00020058800bd
:0c3e48008400a90000000000feff37000d
:020000040000fa
:0200000401f009
:04000000ffffff00ff
:020000040000fa
:0200000401f009
:04000400ffffff00fb
:020000040000fa
:0200000401f009
:04000800ffffff00f7
:020000040000fa
:0200000401f009
:04000c00fbff0000f6
:020000040000fa
:0200000401f009
:040010007dff000070
:020000040000fa
:0200000401f009
:040014007fff00006a
:020000040000fa
:0200000401f009
:04001800ffff0000e6
:020000040000fa
:0200000401f009
:04001c00dfff000002
:00000001FF
